{
  "contractName": "Paciente",
  "abi": [
    {
      "inputs": [
        {
          "internalType": "address",
          "name": "",
          "type": "address"
        }
      ],
      "name": "pacientes",
      "outputs": [
        {
          "components": [
            {
              "internalType": "string",
              "name": "name",
              "type": "string"
            },
            {
              "internalType": "string",
              "name": "cpf",
              "type": "string"
            },
            {
              "internalType": "string",
              "name": "rg",
              "type": "string"
            },
            {
              "internalType": "string",
              "name": "nome_social",
              "type": "string"
            },
            {
              "internalType": "string",
              "name": "dt_nasc",
              "type": "string"
            },
            {
              "internalType": "string",
              "name": "sexo",
              "type": "string"
            },
            {
              "internalType": "string",
              "name": "cor_raca",
              "type": "string"
            },
            {
              "internalType": "string",
              "name": "nacionalidade",
              "type": "string"
            },
            {
              "internalType": "string",
              "name": "telefone",
              "type": "string"
            },
            {
              "internalType": "string",
              "name": "email",
              "type": "string"
            },
            {
              "internalType": "string",
              "name": "orientacao_sexual",
              "type": "string"
            },
            {
              "internalType": "string",
              "name": "identidade_de_genero",
              "type": "string"
            },
            {
              "internalType": "string",
              "name": "nome_da_mae",
              "type": "string"
            },
            {
              "internalType": "string",
              "name": "nome_do_pai",
              "type": "string"
            },
            {
              "internalType": "string",
              "name": "estado_civil",
              "type": "string"
            },
            {
              "internalType": "string",
              "name": "NIS_PIS_PASEP",
              "type": "string"
            },
            {
              "internalType": "string",
              "name": "ocupacao",
              "type": "string"
            },
            {
              "internalType": "string",
              "name": "escolaridade",
              "type": "string"
            },
            {
              "internalType": "string",
              "name": "tipo_sanguineo",
              "type": "string"
            },
            {
              "internalType": "string",
              "name": "pais",
              "type": "string"
            },
            {
              "internalType": "string",
              "name": "municipio",
              "type": "string"
            },
            {
              "internalType": "string",
              "name": "estado",
              "type": "string"
            },
            {
              "internalType": "string",
              "name": "bairro",
              "type": "string"
            },
            {
              "internalType": "string",
              "name": "logradouro",
              "type": "string"
            },
            {
              "internalType": "string",
              "name": "numero",
              "type": "string"
            },
            {
              "internalType": "string",
              "name": "cep",
              "type": "string"
            },
            {
              "internalType": "string",
              "name": "complemento",
              "type": "string"
            },
            {
              "internalType": "string",
              "name": "referencia",
              "type": "string"
            },
            {
              "internalType": "string",
              "name": "area",
              "type": "string"
            },
            {
              "internalType": "string",
              "name": "microarea",
              "type": "string"
            },
            {
              "internalType": "string",
              "name": "n_prontuario",
              "type": "string"
            }
          ],
          "internalType": "struct Prontuario.data",
          "name": "userProntuario",
          "type": "tuple"
        }
      ],
      "stateMutability": "view",
      "type": "function"
    },
    {
      "inputs": [
        {
          "internalType": "address",
          "name": "_userAddress",
          "type": "address"
        },
        {
          "internalType": "string[]",
          "name": "userData",
          "type": "string[]"
        }
      ],
      "name": "AdicionarPaciente",
      "outputs": [],
      "stateMutability": "nonpayable",
      "type": "function"
    }
  ],
  "bytecode": "0x608060405234801561001057600080fd5b506128b3806100206000396000f3fe608060405234801561001057600080fd5b50600436106100365760003560e01c8063bc14b7dc1461003b578063d556d6331461006b575b600080fd5b61005560048036038101906100509190612307565b610087565b6040516100629190612722565b60405180910390f35b61008560048036038101906100809190612330565b61144e565b005b600060205280600052604060002060009150905080600001604051806103e0016040529081600082018054600181600116156101000203166002900480601f0160208091040260200160405190810160405280929190818152602001828054600181600116156101000203166002900480156101445780601f1061011957610100808354040283529160200191610144565b820191906000526020600020905b81548152906001019060200180831161012757829003601f168201915b50505050508152602001600182018054600181600116156101000203166002900480601f0160208091040260200160405190810160405280929190818152602001828054600181600116156101000203166002900480156101e65780601f106101bb576101008083540402835291602001916101e6565b820191906000526020600020905b8154815290600101906020018083116101c957829003601f168201915b50505050508152602001600282018054600181600116156101000203166002900480601f0160208091040260200160405190810160405280929190818152602001828054600181600116156101000203166002900480156102885780601f1061025d57610100808354040283529160200191610288565b820191906000526020600020905b81548152906001019060200180831161026b57829003601f168201915b50505050508152602001600382018054600181600116156101000203166002900480601f01602080910402602001604051908101604052809291908181526020018280546001816001161561010002031660029004801561032a5780601f106102ff5761010080835404028352916020019161032a565b820191906000526020600020905b81548152906001019060200180831161030d57829003601f168201915b50505050508152602001600482018054600181600116156101000203166002900480601f0160208091040260200160405190810160405280929190818152602001828054600181600116156101000203166002900480156103cc5780601f106103a1576101008083540402835291602001916103cc565b820191906000526020600020905b8154815290600101906020018083116103af57829003601f168201915b50505050508152602001600582018054600181600116156101000203166002900480601f01602080910402602001604051908101604052809291908181526020018280546001816001161561010002031660029004801561046e5780601f106104435761010080835404028352916020019161046e565b820191906000526020600020905b81548152906001019060200180831161045157829003601f168201915b50505050508152602001600682018054600181600116156101000203166002900480601f0160208091040260200160405190810160405280929190818152602001828054600181600116156101000203166002900480156105105780601f106104e557610100808354040283529160200191610510565b820191906000526020600020905b8154815290600101906020018083116104f357829003601f168201915b50505050508152602001600782018054600181600116156101000203166002900480601f0160208091040260200160405190810160405280929190818152602001828054600181600116156101000203166002900480156105b25780601f10610587576101008083540402835291602001916105b2565b820191906000526020600020905b81548152906001019060200180831161059557829003601f168201915b50505050508152602001600882018054600181600116156101000203166002900480601f0160208091040260200160405190810160405280929190818152602001828054600181600116156101000203166002900480156106545780601f1061062957610100808354040283529160200191610654565b820191906000526020600020905b81548152906001019060200180831161063757829003601f168201915b50505050508152602001600982018054600181600116156101000203166002900480601f0160208091040260200160405190810160405280929190818152602001828054600181600116156101000203166002900480156106f65780601f106106cb576101008083540402835291602001916106f6565b820191906000526020600020905b8154815290600101906020018083116106d957829003601f168201915b50505050508152602001600a82018054600181600116156101000203166002900480601f0160208091040260200160405190810160405280929190818152602001828054600181600116156101000203166002900480156107985780601f1061076d57610100808354040283529160200191610798565b820191906000526020600020905b81548152906001019060200180831161077b57829003601f168201915b50505050508152602001600b82018054600181600116156101000203166002900480601f01602080910402602001604051908101604052809291908181526020018280546001816001161561010002031660029004801561083a5780601f1061080f5761010080835404028352916020019161083a565b820191906000526020600020905b81548152906001019060200180831161081d57829003601f168201915b50505050508152602001600c82018054600181600116156101000203166002900480601f0160208091040260200160405190810160405280929190818152602001828054600181600116156101000203166002900480156108dc5780601f106108b1576101008083540402835291602001916108dc565b820191906000526020600020905b8154815290600101906020018083116108bf57829003601f168201915b50505050508152602001600d82018054600181600116156101000203166002900480601f01602080910402602001604051908101604052809291908181526020018280546001816001161561010002031660029004801561097e5780601f106109535761010080835404028352916020019161097e565b820191906000526020600020905b81548152906001019060200180831161096157829003601f168201915b50505050508152602001600e82018054600181600116156101000203166002900480601f016020809104026020016040519081016040528092919081815260200182805460018160011615610100020316600290048015610a205780601f106109f557610100808354040283529160200191610a20565b820191906000526020600020905b815481529060010190602001808311610a0357829003601f168201915b50505050508152602001600f82018054600181600116156101000203166002900480601f016020809104026020016040519081016040528092919081815260200182805460018160011615610100020316600290048015610ac25780601f10610a9757610100808354040283529160200191610ac2565b820191906000526020600020905b815481529060010190602001808311610aa557829003601f168201915b50505050508152602001601082018054600181600116156101000203166002900480601f016020809104026020016040519081016040528092919081815260200182805460018160011615610100020316600290048015610b645780601f10610b3957610100808354040283529160200191610b64565b820191906000526020600020905b815481529060010190602001808311610b4757829003601f168201915b50505050508152602001601182018054600181600116156101000203166002900480601f016020809104026020016040519081016040528092919081815260200182805460018160011615610100020316600290048015610c065780601f10610bdb57610100808354040283529160200191610c06565b820191906000526020600020905b815481529060010190602001808311610be957829003601f168201915b50505050508152602001601282018054600181600116156101000203166002900480601f016020809104026020016040519081016040528092919081815260200182805460018160011615610100020316600290048015610ca85780601f10610c7d57610100808354040283529160200191610ca8565b820191906000526020600020905b815481529060010190602001808311610c8b57829003601f168201915b50505050508152602001601382018054600181600116156101000203166002900480601f016020809104026020016040519081016040528092919081815260200182805460018160011615610100020316600290048015610d4a5780601f10610d1f57610100808354040283529160200191610d4a565b820191906000526020600020905b815481529060010190602001808311610d2d57829003601f168201915b50505050508152602001601482018054600181600116156101000203166002900480601f016020809104026020016040519081016040528092919081815260200182805460018160011615610100020316600290048015610dec5780601f10610dc157610100808354040283529160200191610dec565b820191906000526020600020905b815481529060010190602001808311610dcf57829003601f168201915b50505050508152602001601582018054600181600116156101000203166002900480601f016020809104026020016040519081016040528092919081815260200182805460018160011615610100020316600290048015610e8e5780601f10610e6357610100808354040283529160200191610e8e565b820191906000526020600020905b815481529060010190602001808311610e7157829003601f168201915b50505050508152602001601682018054600181600116156101000203166002900480601f016020809104026020016040519081016040528092919081815260200182805460018160011615610100020316600290048015610f305780601f10610f0557610100808354040283529160200191610f30565b820191906000526020600020905b815481529060010190602001808311610f1357829003601f168201915b50505050508152602001601782018054600181600116156101000203166002900480601f016020809104026020016040519081016040528092919081815260200182805460018160011615610100020316600290048015610fd25780601f10610fa757610100808354040283529160200191610fd2565b820191906000526020600020905b815481529060010190602001808311610fb557829003601f168201915b50505050508152602001601882018054600181600116156101000203166002900480601f0160208091040260200160405190810160405280929190818152602001828054600181600116156101000203166002900480156110745780601f1061104957610100808354040283529160200191611074565b820191906000526020600020905b81548152906001019060200180831161105757829003601f168201915b50505050508152602001601982018054600181600116156101000203166002900480601f0160208091040260200160405190810160405280929190818152602001828054600181600116156101000203166002900480156111165780601f106110eb57610100808354040283529160200191611116565b820191906000526020600020905b8154815290600101906020018083116110f957829003601f168201915b50505050508152602001601a82018054600181600116156101000203166002900480601f0160208091040260200160405190810160405280929190818152602001828054600181600116156101000203166002900480156111b85780601f1061118d576101008083540402835291602001916111b8565b820191906000526020600020905b81548152906001019060200180831161119b57829003601f168201915b50505050508152602001601b82018054600181600116156101000203166002900480601f01602080910402602001604051908101604052809291908181526020018280546001816001161561010002031660029004801561125a5780601f1061122f5761010080835404028352916020019161125a565b820191906000526020600020905b81548152906001019060200180831161123d57829003601f168201915b50505050508152602001601c82018054600181600116156101000203166002900480601f0160208091040260200160405190810160405280929190818152602001828054600181600116156101000203166002900480156112fc5780601f106112d1576101008083540402835291602001916112fc565b820191906000526020600020905b8154815290600101906020018083116112df57829003601f168201915b50505050508152602001601d82018054600181600116156101000203166002900480601f01602080910402602001604051908101604052809291908181526020018280546001816001161561010002031660029004801561139e5780601f106113735761010080835404028352916020019161139e565b820191906000526020600020905b81548152906001019060200180831161138157829003601f168201915b50505050508152602001601e82018054600181600116156101000203166002900480601f0160208091040260200160405190810160405280929190818152602001828054600181600116156101000203166002900480156114405780601f1061141557610100808354040283529160200191611440565b820191906000526020600020905b81548152906001019060200180831161142357829003601f168201915b505050505081525050905081565b8060008151811061145b57fe5b60200260200101516000808473ffffffffffffffffffffffffffffffffffffffff1673ffffffffffffffffffffffffffffffffffffffff16815260200190815260200160002060000160000190805190602001906114ba929190612185565b50806001815181106114c857fe5b60200260200101516000808473ffffffffffffffffffffffffffffffffffffffff1673ffffffffffffffffffffffffffffffffffffffff1681526020019081526020016000206000016001019080519060200190611527929190612185565b508060028151811061153557fe5b60200260200101516000808473ffffffffffffffffffffffffffffffffffffffff1673ffffffffffffffffffffffffffffffffffffffff1681526020019081526020016000206000016002019080519060200190611594929190612185565b50806003815181106115a257fe5b60200260200101516000808473ffffffffffffffffffffffffffffffffffffffff1673ffffffffffffffffffffffffffffffffffffffff1681526020019081526020016000206000016003019080519060200190611601929190612185565b508060048151811061160f57fe5b60200260200101516000808473ffffffffffffffffffffffffffffffffffffffff1673ffffffffffffffffffffffffffffffffffffffff168152602001908152602001600020600001600401908051906020019061166e929190612185565b508060058151811061167c57fe5b60200260200101516000808473ffffffffffffffffffffffffffffffffffffffff1673ffffffffffffffffffffffffffffffffffffffff16815260200190815260200160002060000160050190805190602001906116db929190612185565b50806006815181106116e957fe5b60200260200101516000808473ffffffffffffffffffffffffffffffffffffffff1673ffffffffffffffffffffffffffffffffffffffff1681526020019081526020016000206000016006019080519060200190611748929190612185565b508060078151811061175657fe5b60200260200101516000808473ffffffffffffffffffffffffffffffffffffffff1673ffffffffffffffffffffffffffffffffffffffff16815260200190815260200160002060000160070190805190602001906117b5929190612185565b50806008815181106117c357fe5b60200260200101516000808473ffffffffffffffffffffffffffffffffffffffff1673ffffffffffffffffffffffffffffffffffffffff1681526020019081526020016000206000016014019080519060200190611822929190612185565b508060098151811061183057fe5b60200260200101516000808473ffffffffffffffffffffffffffffffffffffffff1673ffffffffffffffffffffffffffffffffffffffff168152602001908152602001600020600001600801908051906020019061188f929190612185565b5080600a8151811061189d57fe5b60200260200101516000808473ffffffffffffffffffffffffffffffffffffffff1673ffffffffffffffffffffffffffffffffffffffff16815260200190815260200160002060000160090190805190602001906118fc929190612185565b5080600b8151811061190a57fe5b60200260200101516000808473ffffffffffffffffffffffffffffffffffffffff1673ffffffffffffffffffffffffffffffffffffffff1681526020019081526020016000206000016013019080519060200190611969929190612185565b5080600c8151811061197757fe5b60200260200101516000808473ffffffffffffffffffffffffffffffffffffffff1673ffffffffffffffffffffffffffffffffffffffff16815260200190815260200160002060000160190190805190602001906119d6929190612185565b5080600d815181106119e457fe5b60200260200101516000808473ffffffffffffffffffffffffffffffffffffffff1673ffffffffffffffffffffffffffffffffffffffff1681526020019081526020016000206000016015019080519060200190611a43929190612185565b5080600e81518110611a5157fe5b60200260200101516000808473ffffffffffffffffffffffffffffffffffffffff1673ffffffffffffffffffffffffffffffffffffffff168152602001908152602001600020600001600a019080519060200190611ab0929190612185565b5080600f81518110611abe57fe5b60200260200101516000808473ffffffffffffffffffffffffffffffffffffffff1673ffffffffffffffffffffffffffffffffffffffff168152602001908152602001600020600001600b019080519060200190611b1d929190612185565b5080601081518110611b2b57fe5b60200260200101516000808473ffffffffffffffffffffffffffffffffffffffff1673ffffffffffffffffffffffffffffffffffffffff1681526020019081526020016000206000016016019080519060200190611b8a929190612185565b5080601181518110611b9857fe5b60200260200101516000808473ffffffffffffffffffffffffffffffffffffffff1673ffffffffffffffffffffffffffffffffffffffff1681526020019081526020016000206000016017019080519060200190611bf7929190612185565b5080601281518110611c0557fe5b60200260200101516000808473ffffffffffffffffffffffffffffffffffffffff1673ffffffffffffffffffffffffffffffffffffffff1681526020019081526020016000206000016018019080519060200190611c64929190612185565b5080601381518110611c7257fe5b60200260200101516000808473ffffffffffffffffffffffffffffffffffffffff1673ffffffffffffffffffffffffffffffffffffffff168152602001908152602001600020600001601a019080519060200190611cd1929190612185565b5080601481518110611cdf57fe5b60200260200101516000808473ffffffffffffffffffffffffffffffffffffffff1673ffffffffffffffffffffffffffffffffffffffff168152602001908152602001600020600001601b019080519060200190611d3e929190612185565b5080601581518110611d4c57fe5b60200260200101516000808473ffffffffffffffffffffffffffffffffffffffff1673ffffffffffffffffffffffffffffffffffffffff168152602001908152602001600020600001601c019080519060200190611dab929190612185565b5080601681518110611db957fe5b60200260200101516000808473ffffffffffffffffffffffffffffffffffffffff1673ffffffffffffffffffffffffffffffffffffffff168152602001908152602001600020600001601d019080519060200190611e18929190612185565b5080601781518110611e2657fe5b60200260200101516000808473ffffffffffffffffffffffffffffffffffffffff1673ffffffffffffffffffffffffffffffffffffffff168152602001908152602001600020600001600c019080519060200190611e85929190612185565b5080601881518110611e9357fe5b60200260200101516000808473ffffffffffffffffffffffffffffffffffffffff1673ffffffffffffffffffffffffffffffffffffffff168152602001908152602001600020600001600d019080519060200190611ef2929190612185565b5080601981518110611f0057fe5b60200260200101516000808473ffffffffffffffffffffffffffffffffffffffff1673ffffffffffffffffffffffffffffffffffffffff168152602001908152602001600020600001600e019080519060200190611f5f929190612185565b5080601a81518110611f6d57fe5b60200260200101516000808473ffffffffffffffffffffffffffffffffffffffff1673ffffffffffffffffffffffffffffffffffffffff168152602001908152602001600020600001600f019080519060200190611fcc929190612185565b5080601b81518110611fda57fe5b60200260200101516000808473ffffffffffffffffffffffffffffffffffffffff1673ffffffffffffffffffffffffffffffffffffffff1681526020019081526020016000206000016010019080519060200190612039929190612185565b5080601c8151811061204757fe5b60200260200101516000808473ffffffffffffffffffffffffffffffffffffffff1673ffffffffffffffffffffffffffffffffffffffff16815260200190815260200160002060000160110190805190602001906120a6929190612185565b5080601d815181106120b457fe5b60200260200101516000808473ffffffffffffffffffffffffffffffffffffffff1673ffffffffffffffffffffffffffffffffffffffff1681526020019081526020016000206000016012019080519060200190612113929190612185565b5080601e8151811061212157fe5b60200260200101516000808473ffffffffffffffffffffffffffffffffffffffff1673ffffffffffffffffffffffffffffffffffffffff168152602001908152602001600020600001601e019080519060200190612180929190612185565b505050565b828054600181600116156101000203166002900490600052602060002090601f016020900481019282601f106121c657805160ff19168380011785556121f4565b828001600101855582156121f4579182015b828111156121f35782518255916020019190600101906121d8565b5b5090506122019190612205565b5090565b61222791905b8082111561222357600081600090555060010161220b565b5090565b90565b60008135905061223981612866565b92915050565b600082601f83011261225057600080fd5b813561226361225e82612771565b612744565b9150818183526020840193506020810190508360005b838110156122a9578135860161228f88826122b3565b845260208401935060208301925050600181019050612279565b5050505092915050565b600082601f8301126122c457600080fd5b81356122d76122d282612799565b612744565b915080825260208301602083018583830111156122f357600080fd5b6122fe838284612813565b50505092915050565b60006020828403121561231957600080fd5b60006123278482850161222a565b91505092915050565b6000806040838503121561234357600080fd5b60006123518582860161222a565b925050602083013567ffffffffffffffff81111561236e57600080fd5b61237a8582860161223f565b9150509250929050565b600061238f826127c5565b61239981856127d0565b93506123a9818560208601612822565b6123b281612855565b840191505092915050565b60006103e08301600083015184820360008601526123db8282612384565b915050602083015184820360208601526123f58282612384565b9150506040830151848203604086015261240f8282612384565b915050606083015184820360608601526124298282612384565b915050608083015184820360808601526124438282612384565b91505060a083015184820360a086015261245d8282612384565b91505060c083015184820360c08601526124778282612384565b91505060e083015184820360e08601526124918282612384565b9150506101008301518482036101008601526124ad8282612384565b9150506101208301518482036101208601526124c98282612384565b9150506101408301518482036101408601526124e58282612384565b9150506101608301518482036101608601526125018282612384565b91505061018083015184820361018086015261251d8282612384565b9150506101a08301518482036101a08601526125398282612384565b9150506101c08301518482036101c08601526125558282612384565b9150506101e08301518482036101e08601526125718282612384565b91505061020083015184820361020086015261258d8282612384565b9150506102208301518482036102208601526125a98282612384565b9150506102408301518482036102408601526125c58282612384565b9150506102608301518482036102608601526125e18282612384565b9150506102808301518482036102808601526125fd8282612384565b9150506102a08301518482036102a08601526126198282612384565b9150506102c08301518482036102c08601526126358282612384565b9150506102e08301518482036102e08601526126518282612384565b91505061030083015184820361030086015261266d8282612384565b9150506103208301518482036103208601526126898282612384565b9150506103408301518482036103408601526126a58282612384565b9150506103608301518482036103608601526126c18282612384565b9150506103808301518482036103808601526126dd8282612384565b9150506103a08301518482036103a08601526126f98282612384565b9150506103c08301518482036103c08601526127158282612384565b9150508091505092915050565b6000602082019050818103600083015261273c81846123bd565b905092915050565b6000604051905081810181811067ffffffffffffffff8211171561276757600080fd5b8060405250919050565b600067ffffffffffffffff82111561278857600080fd5b602082029050602081019050919050565b600067ffffffffffffffff8211156127b057600080fd5b601f19601f8301169050602081019050919050565b600081519050919050565b600082825260208201905092915050565b60006127ec826127f3565b9050919050565b600073ffffffffffffffffffffffffffffffffffffffff82169050919050565b82818337600083830152505050565b60005b83811015612840578082015181840152602081019050612825565b8381111561284f576000848401525b50505050565b6000601f19601f8301169050919050565b61286f816127e1565b811461287a57600080fd5b5056fea26469706673582212201e9c88162cbdcb3c20a21cebcc6f109249f60b28ef34e606db0181e8cc14279f64736f6c63430006070033",
  "immutableReferences": {},
  "source": "pragma solidity 0.6.7;\r\npragma experimental ABIEncoderV2;\r\n\r\nimport './Prontuario.sol';\r\n\r\ncontract Paciente {\r\n   \r\n    struct PacienteData {    \r\n        Prontuario.data userProntuario;      \r\n    }\r\n\r\n    mapping(address => PacienteData) public pacientes;\r\n\r\n    function AdicionarPaciente(address _userAddress , string[] memory userData) public{\r\n        pacientes[_userAddress].userProntuario.name = userData[0];\r\n        pacientes[_userAddress].userProntuario.cpf = userData[1];\r\n        pacientes[_userAddress].userProntuario.rg = userData[2];\r\n        pacientes[_userAddress].userProntuario.nome_social = userData[3];\r\n        pacientes[_userAddress].userProntuario.dt_nasc = userData[4];\r\n        pacientes[_userAddress].userProntuario.sexo = userData[5];\r\n        pacientes[_userAddress].userProntuario.cor_raca = userData[6];\r\n        pacientes[_userAddress].userProntuario.nacionalidade = userData[7];\r\n        pacientes[_userAddress].userProntuario.municipio = userData[8];\r\n        pacientes[_userAddress].userProntuario.telefone = userData[9];\r\n        pacientes[_userAddress].userProntuario.email = userData[10];\r\n        pacientes[_userAddress].userProntuario.pais = userData[11];\r\n        pacientes[_userAddress].userProntuario.cep = userData[12];\r\n        pacientes[_userAddress].userProntuario.estado = userData[13];\r\n        pacientes[_userAddress].userProntuario.orientacao_sexual = userData[14];\r\n        pacientes[_userAddress].userProntuario.identidade_de_genero = userData[15];\r\n        pacientes[_userAddress].userProntuario.bairro = userData[16];\r\n        pacientes[_userAddress].userProntuario.logradouro = userData[17];\r\n        pacientes[_userAddress].userProntuario.numero = userData[18];\r\n        pacientes[_userAddress].userProntuario.complemento = userData[19];\r\n        pacientes[_userAddress].userProntuario.referencia = userData[20];\r\n        pacientes[_userAddress].userProntuario.area = userData[21];\r\n        pacientes[_userAddress].userProntuario.microarea = userData[22];\r\n        pacientes[_userAddress].userProntuario.nome_da_mae = userData[23];\r\n        pacientes[_userAddress].userProntuario.nome_do_pai = userData[24];\r\n        pacientes[_userAddress].userProntuario.estado_civil = userData[25];\r\n        pacientes[_userAddress].userProntuario.NIS_PIS_PASEP = userData[26];        \r\n        pacientes[_userAddress].userProntuario.ocupacao = userData[27];\r\n        pacientes[_userAddress].userProntuario.escolaridade = userData[28];\r\n        pacientes[_userAddress].userProntuario.tipo_sanguineo = userData[29];        \r\n        pacientes[_userAddress].userProntuario.n_prontuario = userData[30];\r\n    }\r\n\r\n\r\n\r\n    /*function AdicionarPacientePersonal1(address _userAddress,\r\n        string memory _name,\r\n        string memory _cpf,\r\n        string memory _rg,\r\n        string memory _nome_social,\r\n        string memory _dt_nasc,\r\n        string memory _sexo,\r\n        string memory _cor_raca,\r\n        string memory _nacionalidade\r\n       ) public {\r\n        Paciente storage pc = pacientes[_userAddress];\r\n        pc.userAddress = _userAddress;\r\n\r\n        pacientes[_userAddress].userProntuario.name = _name;\r\n        pacientes[_userAddress].userProntuario.cpf = _cpf;\r\n        pacientes[_userAddress].userProntuario.rg = _rg;\r\n        pacientes[_userAddress].userProntuario.nome_social = _nome_social;\r\n        pacientes[_userAddress].userProntuario.dt_nasc = _dt_nasc;\r\n        pacientes[_userAddress].userProntuario.sexo = _sexo;\r\n        pacientes[_userAddress].userProntuario.cor_raca = _cor_raca;\r\n        pacientes[_userAddress].userProntuario.nacionalidade = _nacionalidade;\r\n    }\r\n\r\n    function AdicionarPacientePersonal2(address _userAddress,\r\n        string memory _municipio,\r\n        string memory _telefone,\r\n        string memory _email,\r\n        string memory _pais,\r\n        string  memory _cep,\r\n        string memory _estado,\r\n        string memory _orientacao_sexual,\r\n        string memory _identidade_de_genero\r\n       ) public {\r\n        Paciente storage pc = pacientes[_userAddress];\r\n        pc.userAddress = _userAddress;\r\n\r\n        pacientes[_userAddress].userProntuario.municipio = _municipio;\r\n        pacientes[_userAddress].userProntuario.telefone = _telefone;\r\n        pacientes[_userAddress].userProntuario.email = _email;\r\n        pacientes[_userAddress].userProntuario.pais = _pais;\r\n        pacientes[_userAddress].userProntuario.cep = _cep;\r\n        pacientes[_userAddress].userProntuario.estado = _estado;\r\n        pacientes[_userAddress].userProntuario.orientacao_sexual = _orientacao_sexual;\r\n        pacientes[_userAddress].userProntuario.identidade_de_genero = _identidade_de_genero;\r\n    }\r\n\r\n    function AdicionarPacienteAddress1(address _userAddress,\r\n        string memory _bairro,\r\n        string memory _logradouro,\r\n        string memory _numero,\r\n        string memory _complemento,\r\n        string memory _referencia,\r\n        string memory _area,\r\n        string memory _microarea\r\n       ) public {\r\n        Paciente storage pc = pacientes[_userAddress];\r\n        pc.userAddress = _userAddress;\r\n\r\n        pacientes[_userAddress].userProntuario.bairro = _bairro;\r\n        pacientes[_userAddress].userProntuario.logradouro = _logradouro;\r\n        pacientes[_userAddress].userProntuario.numero = _numero;\r\n        pacientes[_userAddress].userProntuario.complemento = _complemento;\r\n        pacientes[_userAddress].userProntuario.referencia = _referencia;\r\n        pacientes[_userAddress].userProntuario.area = _area;\r\n        pacientes[_userAddress].userProntuario.microarea = _microarea;\r\n    }\r\n\r\n     function AdicionarPacienteOthers(address _userAddress,\r\n        string memory _nome_da_mae,\r\n        string memory _nome_do_pai,\r\n        string memory _estado_civil,\r\n        string memory _NIS_PIS_PASEP,\r\n        string memory _n_prontuario,\r\n        string memory _ocupacao,\r\n        string memory _escolaridade,\r\n        string memory _tipo_sanguineo\r\n       ) public {\r\n        Paciente storage pc = pacientes[_userAddress];\r\n        pc.userAddress = _userAddress;\r\n\r\n        pacientes[_userAddress].userProntuario.nome_da_mae = _nome_da_mae;\r\n        pacientes[_userAddress].userProntuario.nome_do_pai = _nome_do_pai;\r\n        pacientes[_userAddress].userProntuario.estado_civil = _estado_civil;\r\n        pacientes[_userAddress].userProntuario.NIS_PIS_PASEP = _NIS_PIS_PASEP;\r\n        pacientes[_userAddress].userProntuario.n_prontuario = _n_prontuario;\r\n        pacientes[_userAddress].userProntuario.ocupacao = _ocupacao;\r\n        pacientes[_userAddress].userProntuario.escolaridade = _escolaridade;\r\n        pacientes[_userAddress].userProntuario.tipo_sanguineo = _tipo_sanguineo;\r\n    }*/\r\n\r\n}",
  "sourcePath": "C:\\Users\\Lucas\\Desktop\\TCC\\blockchain-sus-rec-client\\src\\contracts\\Paciente.sol",
  "compiler": {
    "name": "solc",
    "version": "0.6.7+commit.b8d736ae.Emscripten.clang"
  },
  "schemaVersion": "3.1.0",
  "updatedAt": "2020-05-20T22:13:18.434Z",
  "devdoc": {
    "methods": {}
  },
  "userdoc": {
    "methods": {}
  }
}