{
  "contractName": "PatientFactory",
  "abi": [
    {
      "constant": true,
      "inputs": [
        {
          "name": "",
          "type": "uint256"
        }
      ],
      "name": "users",
      "outputs": [
        {
          "name": "",
          "type": "address"
        }
      ],
      "payable": false,
      "stateMutability": "view",
      "type": "function",
      "signature": "0x365b98b2"
    },
    {
      "anonymous": false,
      "inputs": [
        {
          "indexed": false,
          "name": "user",
          "type": "address"
        },
        {
          "indexed": false,
          "name": "index",
          "type": "uint256"
        }
      ],
      "name": "UserCreated",
      "type": "event",
      "signature": "0xa27642fccf9a9a0a8a8e31188dfec60a6565c30a20ef3ed1eb3a779a79a36b2e"
    },
    {
      "constant": false,
      "inputs": [
        {
          "name": "_name",
          "type": "bytes32"
        }
      ],
      "name": "createUser",
      "outputs": [],
      "payable": false,
      "stateMutability": "nonpayable",
      "type": "function",
      "signature": "0xabf7bfd8"
    }
  ],
  "bytecode": "0x608060405234801561001057600080fd5b50610383806100206000396000f3fe60806040526004361061004c576000357c0100000000000000000000000000000000000000000000000000000000900463ffffffff168063365b98b214610051578063abf7bfd8146100cc575b600080fd5b34801561005d57600080fd5b5061008a6004803603602081101561007457600080fd5b8101908080359060200190929190505050610107565b604051808273ffffffffffffffffffffffffffffffffffffffff1673ffffffffffffffffffffffffffffffffffffffff16815260200191505060405180910390f35b3480156100d857600080fd5b50610105600480360360208110156100ef57600080fd5b8101908080359060200190929190505050610145565b005b60008181548110151561011657fe5b906000526020600020016000915054906101000a900473ffffffffffffffffffffffffffffffffffffffff1681565b600081610150610253565b80828152602001915050604051809103906000f080158015610176573d6000803e3d6000fd5b5090507fa27642fccf9a9a0a8a8e31188dfec60a6565c30a20ef3ed1eb3a779a79a36b2e81600080549050604051808373ffffffffffffffffffffffffffffffffffffffff1673ffffffffffffffffffffffffffffffffffffffff1681526020018281526020019250505060405180910390a160008190806001815401808255809150509060018203906000526020600020016000909192909190916101000a81548173ffffffffffffffffffffffffffffffffffffffff021916908373ffffffffffffffffffffffffffffffffffffffff160217905550505050565b60405160f5806102638339019056fe608060405234801561001057600080fd5b506040516020806100f58339810180604052602081101561003057600080fd5b81019080805190602001909291905050508060008190555050609e806100576000396000f3fe608060405260043610603f576000357c0100000000000000000000000000000000000000000000000000000000900463ffffffff16806306fdde03146044575b600080fd5b348015604f57600080fd5b506056606c565b6040518082815260200191505060405180910390f35b6000548156fea165627a7a723058207db78b36c7b7b92e5e43ceb139e3197b8dcbac51012bdad889e130e68faf2d0d0029a165627a7a7230582095a22b1286f0afe34f4b0ee1382f4292a1820ddbdbb6336b6da4e9913f506f830029",
  "source": "pragma solidity ^0.5.0;\r\n\r\ncontract Patient {\r\n    bytes32 public name;\r\n\r\n    constructor( bytes32 _name) public {\r\n        name = _name;\r\n    }\r\n}\r\n\r\ncontract PatientFactory {\r\n    Patient[] public users;\r\n    function createUser(bytes32 _name) external {\r\n        Patient user = new Patient(_name);\r\n\r\n        emit UserCreated(user, users.length);\r\n\r\n        users.push(user);\r\n    }\r\n\r\n    event UserCreated(Patient user, uint256 index);\r\n}",
  "sourcePath": "C:/Users/Lucas/Desktop/blockchain-sus-rec-client/src/contracts/Patient.sol",
  "compiler": {
    "name": "solc",
    "version": "0.5.0+commit.1d4f565a.Emscripten.clang"
  },
  "schemaVersion": "3.0.2",
  "updatedAt": "2020-05-03T21:26:02.598Z",
  "devdoc": {
    "methods": {}
  },
  "userdoc": {
    "methods": {}
  }
}