{
  "contractName": "Patient",
  "abi": [
    {
      "constant": true,
      "inputs": [
        {
          "name": "",
          "type": "address"
        }
      ],
      "name": "patients",
      "outputs": [
        {
          "name": "name",
          "type": "string"
        },
        {
          "name": "cpf",
          "type": "string"
        },
        {
          "name": "set",
          "type": "bool"
        }
      ],
      "payable": false,
      "stateMutability": "view",
      "type": "function",
      "signature": "0x0869cfbc"
    },
    {
      "anonymous": false,
      "inputs": [
        {
          "indexed": false,
          "name": "name",
          "type": "string"
        },
        {
          "indexed": false,
          "name": "cpf",
          "type": "string"
        },
        {
          "indexed": false,
          "name": "set",
          "type": "bool"
        }
      ],
      "name": "PatientCreated",
      "type": "event",
      "signature": "0x5c5a70dc99b85b5de9773ccce748d18169bba7c80b92c84f705841704ac87aed"
    },
    {
      "constant": false,
      "inputs": [
        {
          "name": "_userAddress",
          "type": "address"
        },
        {
          "name": "_name",
          "type": "string"
        },
        {
          "name": "_cpf",
          "type": "string"
        }
      ],
      "name": "addPatient",
      "outputs": [],
      "payable": false,
      "stateMutability": "nonpayable",
      "type": "function",
      "signature": "0x37b16b50"
    }
  ],
  "bytecode": "0x608060405234801561001057600080fd5b5061077f806100206000396000f3fe60806040526004361061004c576000357c0100000000000000000000000000000000000000000000000000000000900463ffffffff1680630869cfbc1461005157806337b16b5014610192575b600080fd5b34801561005d57600080fd5b506100a06004803603602081101561007457600080fd5b81019080803573ffffffffffffffffffffffffffffffffffffffff169060200190929190505050610311565b60405180806020018060200184151515158152602001838103835286818151815260200191508051906020019080838360005b838110156100ee5780820151818401526020810190506100d3565b50505050905090810190601f16801561011b5780820380516001836020036101000a031916815260200191505b50838103825285818151815260200191508051906020019080838360005b83811015610154578082015181840152602081019050610139565b50505050905090810190601f1680156101815780820380516001836020036101000a031916815260200191505b509550505050505060405180910390f35b34801561019e57600080fd5b5061030f600480360360608110156101b557600080fd5b81019080803573ffffffffffffffffffffffffffffffffffffffff169060200190929190803590602001906401000000008111156101f257600080fd5b82018360208201111561020457600080fd5b8035906020019184600183028401116401000000008311171561022657600080fd5b91908080601f016020809104026020016040519081016040528093929190818152602001838380828437600081840152601f19601f8201169050808301925050505050505091929192908035906020019064010000000081111561028957600080fd5b82018360208201111561029b57600080fd5b803590602001918460018302840111640100000000831117156102bd57600080fd5b91908080601f016020809104026020016040519081016040528093929190818152602001838380828437600081840152601f19601f820116905080830192505050505050509192919290505050610478565b005b6000602052806000526040600020600091509050806000018054600181600116156101000203166002900480601f0160208091040260200160405190810160405280929190818152602001828054600181600116156101000203166002900480156103bd5780601f10610392576101008083540402835291602001916103bd565b820191906000526020600020905b8154815290600101906020018083116103a057829003601f168201915b505050505090806001018054600181600116156101000203166002900480601f01602080910402602001604051908101604052809291908181526020018280546001816001161561010002031660029004801561045b5780601f106104305761010080835404028352916020019161045b565b820191906000526020600020905b81548152906001019060200180831161043e57829003601f168201915b5050505050908060020160009054906101000a900460ff16905083565b60008060008573ffffffffffffffffffffffffffffffffffffffff1673ffffffffffffffffffffffffffffffffffffffff16815260200190815260200160002090508060020160009054906101000a900460ff161515156104d857600080fd5b606060405190810160405280848152602001838152602001600115158152506000808673ffffffffffffffffffffffffffffffffffffffff1673ffffffffffffffffffffffffffffffffffffffff16815260200190815260200160002060008201518160000190805190602001906105519291906106ae565b50602082015181600101908051906020019061056e9291906106ae565b5060408201518160020160006101000a81548160ff0219169083151502179055509050507f5c5a70dc99b85b5de9773ccce748d18169bba7c80b92c84f705841704ac87aed8383600160405180806020018060200184151515158152602001838103835286818151815260200191508051906020019080838360005b838110156106055780820151818401526020810190506105ea565b50505050905090810190601f1680156106325780820380516001836020036101000a031916815260200191505b50838103825285818151815260200191508051906020019080838360005b8381101561066b578082015181840152602081019050610650565b50505050905090810190601f1680156106985780820380516001836020036101000a031916815260200191505b509550505050505060405180910390a150505050565b828054600181600116156101000203166002900490600052602060002090601f016020900481019282601f106106ef57805160ff191683800117855561071d565b8280016001018555821561071d579182015b8281111561071c578251825591602001919060010190610701565b5b50905061072a919061072e565b5090565b61075091905b8082111561074c576000816000905550600101610734565b5090565b9056fea165627a7a72305820f4463a5ad5dedaa64f96741c99dcfa1ec58dbd14fd055e69b60ce509a9f19ae70029",
  "source": "pragma solidity ^0.5.0;\r\n\r\ncontract Patient{\r\n    mapping(address => PatientInfo) public patients;\r\n\r\n    struct PatientInfo {\r\n        string name;\r\n        string cpf;\r\n        bool set;\r\n    }\r\n\r\n    event PatientCreated(\r\n        string name,\r\n        string cpf,\r\n        bool set\r\n    );\r\n\r\n    function addPatient(address _userAddress, string memory _name, string memory _cpf) public {\r\n        PatientInfo storage patient = patients[_userAddress];\r\n        require(!patient.set);\r\n        // Create the product\r\n        patients[_userAddress] = PatientInfo({\r\n            name: _name,\r\n            cpf: _cpf,\r\n            set: true\r\n        });\r\n        // Trigger an event\r\n        emit PatientCreated(_name, _cpf, true);\r\n    }\r\n\r\n}",
  "sourcePath": "C:/Users/Lucas/Desktop/blockchain-sus-rec-client/src/contracts/Patient.sol",
  "compiler": {
    "name": "solc",
    "version": "0.5.0+commit.1d4f565a.Emscripten.clang"
  },
  "schemaVersion": "3.0.2",
  "updatedAt": "2020-05-02T00:58:45.460Z",
  "devdoc": {
    "methods": {}
  },
  "userdoc": {
    "methods": {}
  }
}