{
  "contractName": "System",
  "abi": [
    {
      "constant": true,
      "inputs": [
        {
          "name": "",
          "type": "address"
        }
      ],
      "name": "pacientes",
      "outputs": [
        {
          "name": "userAddress",
          "type": "address"
        },
        {
          "components": [
            {
              "name": "name",
              "type": "string"
            },
            {
              "name": "cpf",
              "type": "string"
            },
            {
              "name": "nome_social",
              "type": "string"
            },
            {
              "name": "dt_nasc",
              "type": "string"
            },
            {
              "name": "sexo",
              "type": "string"
            },
            {
              "name": "cor_raca",
              "type": "string"
            },
            {
              "name": "rg",
              "type": "string"
            },
            {
              "name": "nacionalidade",
              "type": "string"
            },
            {
              "name": "municipio",
              "type": "string"
            },
            {
              "name": "telefone",
              "type": "string"
            },
            {
              "name": "email",
              "type": "string"
            },
            {
              "name": "pais",
              "type": "string"
            },
            {
              "name": "orientacao_sexual",
              "type": "string"
            },
            {
              "name": "identidade_de_genero",
              "type": "string"
            },
            {
              "name": "cep",
              "type": "string"
            },
            {
              "name": "estado",
              "type": "string"
            },
            {
              "name": "bairro",
              "type": "string"
            },
            {
              "name": "logradouro",
              "type": "string"
            },
            {
              "name": "numero",
              "type": "string"
            },
            {
              "name": "complemento",
              "type": "string"
            },
            {
              "name": "referencia",
              "type": "string"
            },
            {
              "name": "area",
              "type": "string"
            },
            {
              "name": "microarea",
              "type": "string"
            },
            {
              "name": "nome_da_mae",
              "type": "string"
            },
            {
              "name": "nome_do_pai",
              "type": "string"
            },
            {
              "name": "estado_civil",
              "type": "string"
            },
            {
              "name": "NIS_PIS_PASEP",
              "type": "string"
            },
            {
              "name": "n_prontuario",
              "type": "string"
            },
            {
              "name": "ocupacao",
              "type": "string"
            },
            {
              "name": "escolaridade",
              "type": "string"
            },
            {
              "name": "tipo_sanguineo",
              "type": "string"
            }
          ],
          "name": "userProntuario",
          "type": "tuple"
        }
      ],
      "payable": false,
      "stateMutability": "view",
      "type": "function",
      "signature": "0xbc14b7dc"
    },
    {
      "constant": false,
      "inputs": [
        {
          "name": "_userAddress",
          "type": "address"
        },
        {
          "name": "_name",
          "type": "string"
        },
        {
          "name": "_cpf",
          "type": "string"
        },
        {
          "name": "_rg",
          "type": "string"
        },
        {
          "name": "_nome_social",
          "type": "string"
        },
        {
          "name": "_dt_nasc",
          "type": "string"
        },
        {
          "name": "_sexo",
          "type": "string"
        },
        {
          "name": "_cor_raca",
          "type": "string"
        },
        {
          "name": "_nacionalidade",
          "type": "string"
        }
      ],
      "name": "AdicionarPacientePersonal1",
      "outputs": [],
      "payable": false,
      "stateMutability": "nonpayable",
      "type": "function",
      "signature": "0x4a2d3d38"
    },
    {
      "constant": false,
      "inputs": [
        {
          "name": "_userAddress",
          "type": "address"
        },
        {
          "name": "_municipio",
          "type": "string"
        },
        {
          "name": "_telefone",
          "type": "string"
        },
        {
          "name": "_email",
          "type": "string"
        },
        {
          "name": "_pais",
          "type": "string"
        },
        {
          "name": "_cep",
          "type": "string"
        },
        {
          "name": "_estado",
          "type": "string"
        },
        {
          "name": "_orientacao_sexual",
          "type": "string"
        },
        {
          "name": "_identidade_de_genero",
          "type": "string"
        }
      ],
      "name": "AdicionarPacientePersonal2",
      "outputs": [],
      "payable": false,
      "stateMutability": "nonpayable",
      "type": "function",
      "signature": "0x7c354ed7"
    },
    {
      "constant": false,
      "inputs": [
        {
          "name": "_userAddress",
          "type": "address"
        },
        {
          "name": "_bairro",
          "type": "string"
        },
        {
          "name": "_logradouro",
          "type": "string"
        },
        {
          "name": "_numero",
          "type": "string"
        },
        {
          "name": "_complemento",
          "type": "string"
        },
        {
          "name": "_referencia",
          "type": "string"
        },
        {
          "name": "_area",
          "type": "string"
        },
        {
          "name": "_microarea",
          "type": "string"
        }
      ],
      "name": "AdicionarPacienteAddress1",
      "outputs": [],
      "payable": false,
      "stateMutability": "nonpayable",
      "type": "function",
      "signature": "0x79c4db1b"
    },
    {
      "constant": false,
      "inputs": [
        {
          "name": "_userAddress",
          "type": "address"
        },
        {
          "name": "_nome_da_mae",
          "type": "string"
        },
        {
          "name": "_nome_do_pai",
          "type": "string"
        },
        {
          "name": "_estado_civil",
          "type": "string"
        },
        {
          "name": "_NIS_PIS_PASEP",
          "type": "string"
        },
        {
          "name": "_n_prontuario",
          "type": "string"
        },
        {
          "name": "_ocupacao",
          "type": "string"
        },
        {
          "name": "_escolaridade",
          "type": "string"
        },
        {
          "name": "_tipo_sanguineo",
          "type": "string"
        }
      ],
      "name": "AdicionarPacienteOthers",
      "outputs": [],
      "payable": false,
      "stateMutability": "nonpayable",
      "type": "function",
      "signature": "0x1d13f1fa"
    }
  ],
  "bytecode": "0x608060405234801561001057600080fd5b50612b73806100206000396000f3fe60806040526004361061006d576000357c0100000000000000000000000000000000000000000000000000000000900463ffffffff1680631d13f1fa146100725780634a2d3d381461009b57806379c4db1b146100c45780637c354ed7146100ed578063bc14b7dc14610116575b600080fd5b34801561007e57600080fd5b50610099600480360361009491908101906124de565b610154565b005b3480156100a757600080fd5b506100c260048036036100bd91908101906124de565b6104ad565b005b3480156100d057600080fd5b506100eb60048036036100e69190810190612384565b610806565b005b3480156100f957600080fd5b50610114600480360361010f91908101906124de565b610b05565b005b34801561012257600080fd5b5061013d6004803603610138919081019061235b565b610e5e565b60405161014b929190612a0e565b60405180910390f35b60008060008b73ffffffffffffffffffffffffffffffffffffffff1673ffffffffffffffffffffffffffffffffffffffff1681526020019081526020016000209050898160000160006101000a81548173ffffffffffffffffffffffffffffffffffffffff021916908373ffffffffffffffffffffffffffffffffffffffff160217905550886000808c73ffffffffffffffffffffffffffffffffffffffff1673ffffffffffffffffffffffffffffffffffffffff168152602001908152602001600020600101601701908051906020019061023192919061224c565b50876000808c73ffffffffffffffffffffffffffffffffffffffff1673ffffffffffffffffffffffffffffffffffffffff168152602001908152602001600020600101601801908051906020019061028a92919061224c565b50866000808c73ffffffffffffffffffffffffffffffffffffffff1673ffffffffffffffffffffffffffffffffffffffff16815260200190815260200160002060010160190190805190602001906102e392919061224c565b50856000808c73ffffffffffffffffffffffffffffffffffffffff1673ffffffffffffffffffffffffffffffffffffffff168152602001908152602001600020600101601a01908051906020019061033c92919061224c565b50846000808c73ffffffffffffffffffffffffffffffffffffffff1673ffffffffffffffffffffffffffffffffffffffff168152602001908152602001600020600101601b01908051906020019061039592919061224c565b50836000808c73ffffffffffffffffffffffffffffffffffffffff1673ffffffffffffffffffffffffffffffffffffffff168152602001908152602001600020600101601c0190805190602001906103ee92919061224c565b50826000808c73ffffffffffffffffffffffffffffffffffffffff1673ffffffffffffffffffffffffffffffffffffffff168152602001908152602001600020600101601d01908051906020019061044792919061224c565b50816000808c73ffffffffffffffffffffffffffffffffffffffff1673ffffffffffffffffffffffffffffffffffffffff168152602001908152602001600020600101601e0190805190602001906104a092919061224c565b5050505050505050505050565b60008060008b73ffffffffffffffffffffffffffffffffffffffff1673ffffffffffffffffffffffffffffffffffffffff1681526020019081526020016000209050898160000160006101000a81548173ffffffffffffffffffffffffffffffffffffffff021916908373ffffffffffffffffffffffffffffffffffffffff160217905550886000808c73ffffffffffffffffffffffffffffffffffffffff1673ffffffffffffffffffffffffffffffffffffffff168152602001908152602001600020600101600001908051906020019061058a92919061224c565b50876000808c73ffffffffffffffffffffffffffffffffffffffff1673ffffffffffffffffffffffffffffffffffffffff16815260200190815260200160002060010160010190805190602001906105e392919061224c565b50866000808c73ffffffffffffffffffffffffffffffffffffffff1673ffffffffffffffffffffffffffffffffffffffff168152602001908152602001600020600101600601908051906020019061063c92919061224c565b50856000808c73ffffffffffffffffffffffffffffffffffffffff1673ffffffffffffffffffffffffffffffffffffffff168152602001908152602001600020600101600201908051906020019061069592919061224c565b50846000808c73ffffffffffffffffffffffffffffffffffffffff1673ffffffffffffffffffffffffffffffffffffffff16815260200190815260200160002060010160030190805190602001906106ee92919061224c565b50836000808c73ffffffffffffffffffffffffffffffffffffffff1673ffffffffffffffffffffffffffffffffffffffff168152602001908152602001600020600101600401908051906020019061074792919061224c565b50826000808c73ffffffffffffffffffffffffffffffffffffffff1673ffffffffffffffffffffffffffffffffffffffff16815260200190815260200160002060010160050190805190602001906107a092919061224c565b50816000808c73ffffffffffffffffffffffffffffffffffffffff1673ffffffffffffffffffffffffffffffffffffffff16815260200190815260200160002060010160070190805190602001906107f992919061224c565b5050505050505050505050565b60008060008a73ffffffffffffffffffffffffffffffffffffffff1673ffffffffffffffffffffffffffffffffffffffff1681526020019081526020016000209050888160000160006101000a81548173ffffffffffffffffffffffffffffffffffffffff021916908373ffffffffffffffffffffffffffffffffffffffff160217905550876000808b73ffffffffffffffffffffffffffffffffffffffff1673ffffffffffffffffffffffffffffffffffffffff16815260200190815260200160002060010160100190805190602001906108e392919061224c565b50866000808b73ffffffffffffffffffffffffffffffffffffffff1673ffffffffffffffffffffffffffffffffffffffff168152602001908152602001600020600101601101908051906020019061093c92919061224c565b50856000808b73ffffffffffffffffffffffffffffffffffffffff1673ffffffffffffffffffffffffffffffffffffffff168152602001908152602001600020600101601201908051906020019061099592919061224c565b50846000808b73ffffffffffffffffffffffffffffffffffffffff1673ffffffffffffffffffffffffffffffffffffffff16815260200190815260200160002060010160130190805190602001906109ee92919061224c565b50836000808b73ffffffffffffffffffffffffffffffffffffffff1673ffffffffffffffffffffffffffffffffffffffff1681526020019081526020016000206001016014019080519060200190610a4792919061224c565b50826000808b73ffffffffffffffffffffffffffffffffffffffff1673ffffffffffffffffffffffffffffffffffffffff1681526020019081526020016000206001016015019080519060200190610aa092919061224c565b50816000808b73ffffffffffffffffffffffffffffffffffffffff1673ffffffffffffffffffffffffffffffffffffffff1681526020019081526020016000206001016016019080519060200190610af992919061224c565b50505050505050505050565b60008060008b73ffffffffffffffffffffffffffffffffffffffff1673ffffffffffffffffffffffffffffffffffffffff1681526020019081526020016000209050898160000160006101000a81548173ffffffffffffffffffffffffffffffffffffffff021916908373ffffffffffffffffffffffffffffffffffffffff160217905550886000808c73ffffffffffffffffffffffffffffffffffffffff1673ffffffffffffffffffffffffffffffffffffffff1681526020019081526020016000206001016008019080519060200190610be292919061224c565b50876000808c73ffffffffffffffffffffffffffffffffffffffff1673ffffffffffffffffffffffffffffffffffffffff1681526020019081526020016000206001016009019080519060200190610c3b92919061224c565b50866000808c73ffffffffffffffffffffffffffffffffffffffff1673ffffffffffffffffffffffffffffffffffffffff168152602001908152602001600020600101600a019080519060200190610c9492919061224c565b50856000808c73ffffffffffffffffffffffffffffffffffffffff1673ffffffffffffffffffffffffffffffffffffffff168152602001908152602001600020600101600b019080519060200190610ced92919061224c565b50846000808c73ffffffffffffffffffffffffffffffffffffffff1673ffffffffffffffffffffffffffffffffffffffff168152602001908152602001600020600101600e019080519060200190610d4692919061224c565b50836000808c73ffffffffffffffffffffffffffffffffffffffff1673ffffffffffffffffffffffffffffffffffffffff168152602001908152602001600020600101600f019080519060200190610d9f92919061224c565b50826000808c73ffffffffffffffffffffffffffffffffffffffff1673ffffffffffffffffffffffffffffffffffffffff168152602001908152602001600020600101600c019080519060200190610df892919061224c565b50816000808c73ffffffffffffffffffffffffffffffffffffffff1673ffffffffffffffffffffffffffffffffffffffff168152602001908152602001600020600101600d019080519060200190610e5192919061224c565b5050505050505050505050565b60006020528060005260406000206000915090508060000160009054906101000a900473ffffffffffffffffffffffffffffffffffffffff1690806001016103e06040519081016040529081600082018054600181600116156101000203166002900480601f016020809104026020016040519081016040528092919081815260200182805460018160011615610100020316600290048015610f425780601f10610f1757610100808354040283529160200191610f42565b820191906000526020600020905b815481529060010190602001808311610f2557829003601f168201915b50505050508152602001600182018054600181600116156101000203166002900480601f016020809104026020016040519081016040528092919081815260200182805460018160011615610100020316600290048015610fe45780601f10610fb957610100808354040283529160200191610fe4565b820191906000526020600020905b815481529060010190602001808311610fc757829003601f168201915b50505050508152602001600282018054600181600116156101000203166002900480601f0160208091040260200160405190810160405280929190818152602001828054600181600116156101000203166002900480156110865780601f1061105b57610100808354040283529160200191611086565b820191906000526020600020905b81548152906001019060200180831161106957829003601f168201915b50505050508152602001600382018054600181600116156101000203166002900480601f0160208091040260200160405190810160405280929190818152602001828054600181600116156101000203166002900480156111285780601f106110fd57610100808354040283529160200191611128565b820191906000526020600020905b81548152906001019060200180831161110b57829003601f168201915b50505050508152602001600482018054600181600116156101000203166002900480601f0160208091040260200160405190810160405280929190818152602001828054600181600116156101000203166002900480156111ca5780601f1061119f576101008083540402835291602001916111ca565b820191906000526020600020905b8154815290600101906020018083116111ad57829003601f168201915b50505050508152602001600582018054600181600116156101000203166002900480601f01602080910402602001604051908101604052809291908181526020018280546001816001161561010002031660029004801561126c5780601f106112415761010080835404028352916020019161126c565b820191906000526020600020905b81548152906001019060200180831161124f57829003601f168201915b50505050508152602001600682018054600181600116156101000203166002900480601f01602080910402602001604051908101604052809291908181526020018280546001816001161561010002031660029004801561130e5780601f106112e35761010080835404028352916020019161130e565b820191906000526020600020905b8154815290600101906020018083116112f157829003601f168201915b50505050508152602001600782018054600181600116156101000203166002900480601f0160208091040260200160405190810160405280929190818152602001828054600181600116156101000203166002900480156113b05780601f10611385576101008083540402835291602001916113b0565b820191906000526020600020905b81548152906001019060200180831161139357829003601f168201915b50505050508152602001600882018054600181600116156101000203166002900480601f0160208091040260200160405190810160405280929190818152602001828054600181600116156101000203166002900480156114525780601f1061142757610100808354040283529160200191611452565b820191906000526020600020905b81548152906001019060200180831161143557829003601f168201915b50505050508152602001600982018054600181600116156101000203166002900480601f0160208091040260200160405190810160405280929190818152602001828054600181600116156101000203166002900480156114f45780601f106114c9576101008083540402835291602001916114f4565b820191906000526020600020905b8154815290600101906020018083116114d757829003601f168201915b50505050508152602001600a82018054600181600116156101000203166002900480601f0160208091040260200160405190810160405280929190818152602001828054600181600116156101000203166002900480156115965780601f1061156b57610100808354040283529160200191611596565b820191906000526020600020905b81548152906001019060200180831161157957829003601f168201915b50505050508152602001600b82018054600181600116156101000203166002900480601f0160208091040260200160405190810160405280929190818152602001828054600181600116156101000203166002900480156116385780601f1061160d57610100808354040283529160200191611638565b820191906000526020600020905b81548152906001019060200180831161161b57829003601f168201915b50505050508152602001600c82018054600181600116156101000203166002900480601f0160208091040260200160405190810160405280929190818152602001828054600181600116156101000203166002900480156116da5780601f106116af576101008083540402835291602001916116da565b820191906000526020600020905b8154815290600101906020018083116116bd57829003601f168201915b50505050508152602001600d82018054600181600116156101000203166002900480601f01602080910402602001604051908101604052809291908181526020018280546001816001161561010002031660029004801561177c5780601f106117515761010080835404028352916020019161177c565b820191906000526020600020905b81548152906001019060200180831161175f57829003601f168201915b50505050508152602001600e82018054600181600116156101000203166002900480601f01602080910402602001604051908101604052809291908181526020018280546001816001161561010002031660029004801561181e5780601f106117f35761010080835404028352916020019161181e565b820191906000526020600020905b81548152906001019060200180831161180157829003601f168201915b50505050508152602001600f82018054600181600116156101000203166002900480601f0160208091040260200160405190810160405280929190818152602001828054600181600116156101000203166002900480156118c05780601f10611895576101008083540402835291602001916118c0565b820191906000526020600020905b8154815290600101906020018083116118a357829003601f168201915b50505050508152602001601082018054600181600116156101000203166002900480601f0160208091040260200160405190810160405280929190818152602001828054600181600116156101000203166002900480156119625780601f1061193757610100808354040283529160200191611962565b820191906000526020600020905b81548152906001019060200180831161194557829003601f168201915b50505050508152602001601182018054600181600116156101000203166002900480601f016020809104026020016040519081016040528092919081815260200182805460018160011615610100020316600290048015611a045780601f106119d957610100808354040283529160200191611a04565b820191906000526020600020905b8154815290600101906020018083116119e757829003601f168201915b50505050508152602001601282018054600181600116156101000203166002900480601f016020809104026020016040519081016040528092919081815260200182805460018160011615610100020316600290048015611aa65780601f10611a7b57610100808354040283529160200191611aa6565b820191906000526020600020905b815481529060010190602001808311611a8957829003601f168201915b50505050508152602001601382018054600181600116156101000203166002900480601f016020809104026020016040519081016040528092919081815260200182805460018160011615610100020316600290048015611b485780601f10611b1d57610100808354040283529160200191611b48565b820191906000526020600020905b815481529060010190602001808311611b2b57829003601f168201915b50505050508152602001601482018054600181600116156101000203166002900480601f016020809104026020016040519081016040528092919081815260200182805460018160011615610100020316600290048015611bea5780601f10611bbf57610100808354040283529160200191611bea565b820191906000526020600020905b815481529060010190602001808311611bcd57829003601f168201915b50505050508152602001601582018054600181600116156101000203166002900480601f016020809104026020016040519081016040528092919081815260200182805460018160011615610100020316600290048015611c8c5780601f10611c6157610100808354040283529160200191611c8c565b820191906000526020600020905b815481529060010190602001808311611c6f57829003601f168201915b50505050508152602001601682018054600181600116156101000203166002900480601f016020809104026020016040519081016040528092919081815260200182805460018160011615610100020316600290048015611d2e5780601f10611d0357610100808354040283529160200191611d2e565b820191906000526020600020905b815481529060010190602001808311611d1157829003601f168201915b50505050508152602001601782018054600181600116156101000203166002900480601f016020809104026020016040519081016040528092919081815260200182805460018160011615610100020316600290048015611dd05780601f10611da557610100808354040283529160200191611dd0565b820191906000526020600020905b815481529060010190602001808311611db357829003601f168201915b50505050508152602001601882018054600181600116156101000203166002900480601f016020809104026020016040519081016040528092919081815260200182805460018160011615610100020316600290048015611e725780601f10611e4757610100808354040283529160200191611e72565b820191906000526020600020905b815481529060010190602001808311611e5557829003601f168201915b50505050508152602001601982018054600181600116156101000203166002900480601f016020809104026020016040519081016040528092919081815260200182805460018160011615610100020316600290048015611f145780601f10611ee957610100808354040283529160200191611f14565b820191906000526020600020905b815481529060010190602001808311611ef757829003601f168201915b50505050508152602001601a82018054600181600116156101000203166002900480601f016020809104026020016040519081016040528092919081815260200182805460018160011615610100020316600290048015611fb65780601f10611f8b57610100808354040283529160200191611fb6565b820191906000526020600020905b815481529060010190602001808311611f9957829003601f168201915b50505050508152602001601b82018054600181600116156101000203166002900480601f0160208091040260200160405190810160405280929190818152602001828054600181600116156101000203166002900480156120585780601f1061202d57610100808354040283529160200191612058565b820191906000526020600020905b81548152906001019060200180831161203b57829003601f168201915b50505050508152602001601c82018054600181600116156101000203166002900480601f0160208091040260200160405190810160405280929190818152602001828054600181600116156101000203166002900480156120fa5780601f106120cf576101008083540402835291602001916120fa565b820191906000526020600020905b8154815290600101906020018083116120dd57829003601f168201915b50505050508152602001601d82018054600181600116156101000203166002900480601f01602080910402602001604051908101604052809291908181526020018280546001816001161561010002031660029004801561219c5780601f106121715761010080835404028352916020019161219c565b820191906000526020600020905b81548152906001019060200180831161217f57829003601f168201915b50505050508152602001601e82018054600181600116156101000203166002900480601f01602080910402602001604051908101604052809291908181526020018280546001816001161561010002031660029004801561223e5780601f106122135761010080835404028352916020019161223e565b820191906000526020600020905b81548152906001019060200180831161222157829003601f168201915b505050505081525050905082565b828054600181600116156101000203166002900490600052602060002090601f016020900481019282601f1061228d57805160ff19168380011785556122bb565b828001600101855582156122bb579182015b828111156122ba57825182559160200191906001019061229f565b5b5090506122c891906122cc565b5090565b6122ee91905b808211156122ea5760008160009055506001016122d2565b5090565b90565b60006122fd8235612ad4565b905092915050565b600082601f830112151561231857600080fd5b813561232b61232682612a6b565b612a3e565b9150808252602083016020830185838301111561234757600080fd5b612352838284612ae6565b50505092915050565b60006020828403121561236d57600080fd5b600061237b848285016122f1565b91505092915050565b600080600080600080600080610100898b0312156123a157600080fd5b60006123af8b828c016122f1565b985050602089013567ffffffffffffffff8111156123cc57600080fd5b6123d88b828c01612305565b975050604089013567ffffffffffffffff8111156123f557600080fd5b6124018b828c01612305565b965050606089013567ffffffffffffffff81111561241e57600080fd5b61242a8b828c01612305565b955050608089013567ffffffffffffffff81111561244757600080fd5b6124538b828c01612305565b94505060a089013567ffffffffffffffff81111561247057600080fd5b61247c8b828c01612305565b93505060c089013567ffffffffffffffff81111561249957600080fd5b6124a58b828c01612305565b92505060e089013567ffffffffffffffff8111156124c257600080fd5b6124ce8b828c01612305565b9150509295985092959890939650565b60008060008060008060008060006101208a8c0312156124fd57600080fd5b600061250b8c828d016122f1565b99505060208a013567ffffffffffffffff81111561252857600080fd5b6125348c828d01612305565b98505060408a013567ffffffffffffffff81111561255157600080fd5b61255d8c828d01612305565b97505060608a013567ffffffffffffffff81111561257a57600080fd5b6125868c828d01612305565b96505060808a013567ffffffffffffffff8111156125a357600080fd5b6125af8c828d01612305565b95505060a08a013567ffffffffffffffff8111156125cc57600080fd5b6125d88c828d01612305565b94505060c08a013567ffffffffffffffff8111156125f557600080fd5b6126018c828d01612305565b93505060e08a013567ffffffffffffffff81111561261e57600080fd5b61262a8c828d01612305565b9250506101008a013567ffffffffffffffff81111561264857600080fd5b6126548c828d01612305565b9150509295985092959850929598565b61266d81612aa2565b82525050565b600061267e82612a97565b808452612692816020860160208601612af5565b61269b81612b28565b602085010191505092915050565b60006103e08301600083015184820360008601526126c78282612673565b915050602083015184820360208601526126e18282612673565b915050604083015184820360408601526126fb8282612673565b915050606083015184820360608601526127158282612673565b9150506080830151848203608086015261272f8282612673565b91505060a083015184820360a08601526127498282612673565b91505060c083015184820360c08601526127638282612673565b91505060e083015184820360e086015261277d8282612673565b9150506101008301518482036101008601526127998282612673565b9150506101208301518482036101208601526127b58282612673565b9150506101408301518482036101408601526127d18282612673565b9150506101608301518482036101608601526127ed8282612673565b9150506101808301518482036101808601526128098282612673565b9150506101a08301518482036101a08601526128258282612673565b9150506101c08301518482036101c08601526128418282612673565b9150506101e08301518482036101e086015261285d8282612673565b9150506102008301518482036102008601526128798282612673565b9150506102208301518482036102208601526128958282612673565b9150506102408301518482036102408601526128b18282612673565b9150506102608301518482036102608601526128cd8282612673565b9150506102808301518482036102808601526128e98282612673565b9150506102a08301518482036102a08601526129058282612673565b9150506102c08301518482036102c08601526129218282612673565b9150506102e08301518482036102e086015261293d8282612673565b9150506103008301518482036103008601526129598282612673565b9150506103208301518482036103208601526129758282612673565b9150506103408301518482036103408601526129918282612673565b9150506103608301518482036103608601526129ad8282612673565b9150506103808301518482036103808601526129c98282612673565b9150506103a08301518482036103a08601526129e58282612673565b9150506103c08301518482036103c0860152612a018282612673565b9150508091505092915050565b6000604082019050612a236000830185612664565b8181036020830152612a3581846126a9565b90509392505050565b6000604051905081810181811067ffffffffffffffff82111715612a6157600080fd5b8060405250919050565b600067ffffffffffffffff821115612a8257600080fd5b601f19601f8301169050602081019050919050565b600081519050919050565b6000612aad82612ab4565b9050919050565b600073ffffffffffffffffffffffffffffffffffffffff82169050919050565b6000612adf82612ab4565b9050919050565b82818337600083830152505050565b60005b83811015612b13578082015181840152602081019050612af8565b83811115612b22576000848401525b50505050565b6000601f19601f830116905091905056fea265627a7a72305820ac972c6a8973b62e66e321f791322fc31287668289c7eae1b34a6ca3d3235a3c6c6578706572696d656e74616cf50037",
  "source": "pragma solidity ^0.5.0;\r\npragma experimental ABIEncoderV2;\r\n\r\ncontract System {\r\n    struct Prontuario {\r\n        string name;\r\n        string cpf;\r\n        string nome_social;\r\n        string dt_nasc;\r\n        string sexo;\r\n        string cor_raca; \r\n        string rg;\r\n        string nacionalidade;\r\n        string municipio;\r\n        string telefone; \r\n        string email;\r\n        string pais;\r\n        string orientacao_sexual;\r\n        string identidade_de_genero;\r\n        string cep; \r\n        string estado; \r\n        string bairro; \r\n        string logradouro;\r\n        string numero; \r\n        string complemento;\r\n        string referencia;\r\n        string area;\r\n        string microarea;\r\n        string nome_da_mae;\r\n        string nome_do_pai;\r\n        string estado_civil;\r\n        string NIS_PIS_PASEP;\r\n        string n_prontuario;\r\n        string ocupacao; \r\n        string escolaridade;\r\n        string tipo_sanguineo; \r\n        \r\n    }\r\n\r\n\r\n    struct Paciente {\r\n        address userAddress;\r\n        Prontuario userProntuario;      \r\n    }\r\n\r\n    mapping(address => Paciente) public pacientes;\r\n\r\n    function AdicionarPacientePersonal1(address _userAddress,\r\n        string memory _name,\r\n        string memory _cpf,\r\n        string memory _rg,\r\n        string memory _nome_social,\r\n        string memory _dt_nasc,\r\n        string memory _sexo,\r\n        string memory _cor_raca,\r\n        string memory _nacionalidade\r\n       ) public {\r\n        Paciente storage pc = pacientes[_userAddress];\r\n        pc.userAddress = _userAddress;\r\n\r\n        pacientes[_userAddress].userProntuario.name = _name;\r\n        pacientes[_userAddress].userProntuario.cpf = _cpf;\r\n        pacientes[_userAddress].userProntuario.rg = _rg;\r\n        pacientes[_userAddress].userProntuario.nome_social = _nome_social;\r\n        pacientes[_userAddress].userProntuario.dt_nasc = _dt_nasc;\r\n        pacientes[_userAddress].userProntuario.sexo = _sexo;\r\n        pacientes[_userAddress].userProntuario.cor_raca = _cor_raca;\r\n        pacientes[_userAddress].userProntuario.nacionalidade = _nacionalidade;\r\n    }\r\n\r\n    function AdicionarPacientePersonal2(address _userAddress,\r\n        string memory _municipio,\r\n        string memory _telefone,\r\n        string memory _email,\r\n        string memory _pais,\r\n        string  memory _cep,\r\n        string memory _estado,\r\n        string memory _orientacao_sexual,\r\n        string memory _identidade_de_genero\r\n       ) public {\r\n        Paciente storage pc = pacientes[_userAddress];\r\n        pc.userAddress = _userAddress;\r\n\r\n        pacientes[_userAddress].userProntuario.municipio = _municipio;\r\n        pacientes[_userAddress].userProntuario.telefone = _telefone;\r\n        pacientes[_userAddress].userProntuario.email = _email;\r\n        pacientes[_userAddress].userProntuario.pais = _pais;\r\n        pacientes[_userAddress].userProntuario.cep = _cep;\r\n        pacientes[_userAddress].userProntuario.estado = _estado;\r\n        pacientes[_userAddress].userProntuario.orientacao_sexual = _orientacao_sexual;\r\n        pacientes[_userAddress].userProntuario.identidade_de_genero = _identidade_de_genero;\r\n    }\r\n\r\n    function AdicionarPacienteAddress1(address _userAddress,\r\n        string memory _bairro,\r\n        string memory _logradouro,\r\n        string memory _numero,\r\n        string memory _complemento,\r\n        string memory _referencia,\r\n        string memory _area,\r\n        string memory _microarea\r\n       ) public {\r\n        Paciente storage pc = pacientes[_userAddress];\r\n        pc.userAddress = _userAddress;\r\n\r\n        pacientes[_userAddress].userProntuario.bairro = _bairro;\r\n        pacientes[_userAddress].userProntuario.logradouro = _logradouro;\r\n        pacientes[_userAddress].userProntuario.numero = _numero;\r\n        pacientes[_userAddress].userProntuario.complemento = _complemento;\r\n        pacientes[_userAddress].userProntuario.referencia = _referencia;\r\n        pacientes[_userAddress].userProntuario.area = _area;\r\n        pacientes[_userAddress].userProntuario.microarea = _microarea;\r\n    }\r\n\r\n     function AdicionarPacienteOthers(address _userAddress,\r\n        string memory _nome_da_mae,\r\n        string memory _nome_do_pai,\r\n        string memory _estado_civil,\r\n        string memory _NIS_PIS_PASEP,\r\n        string memory _n_prontuario,\r\n        string memory _ocupacao,\r\n        string memory _escolaridade,\r\n        string memory _tipo_sanguineo\r\n       ) public {\r\n        Paciente storage pc = pacientes[_userAddress];\r\n        pc.userAddress = _userAddress;\r\n\r\n        pacientes[_userAddress].userProntuario.nome_da_mae = _nome_da_mae;\r\n        pacientes[_userAddress].userProntuario.nome_do_pai = _nome_do_pai;\r\n        pacientes[_userAddress].userProntuario.estado_civil = _estado_civil;\r\n        pacientes[_userAddress].userProntuario.NIS_PIS_PASEP = _NIS_PIS_PASEP;\r\n        pacientes[_userAddress].userProntuario.n_prontuario = _n_prontuario;\r\n        pacientes[_userAddress].userProntuario.ocupacao = _ocupacao;\r\n        pacientes[_userAddress].userProntuario.escolaridade = _escolaridade;\r\n        pacientes[_userAddress].userProntuario.tipo_sanguineo = _tipo_sanguineo;\r\n    }\r\n\r\n}",
  "sourcePath": "C:/Users/Lucas/Desktop/TCC/blockchain-sus-rec-client/src/contracts/System.sol",
  "compiler": {
    "name": "solc",
    "version": "0.5.0+commit.1d4f565a.Emscripten.clang"
  },
  "schemaVersion": "3.0.2",
  "updatedAt": "2020-05-13T22:26:19.076Z",
  "devdoc": {
    "methods": {}
  },
  "userdoc": {
    "methods": {}
  }
}