{
  "contractName": "System",
  "abi": [
    {
      "constant": true,
      "inputs": [
        {
          "name": "",
          "type": "address"
        }
      ],
      "name": "pacientes",
      "outputs": [
        {
          "name": "userAddress",
          "type": "address"
        },
        {
          "components": [
            {
              "name": "name",
              "type": "string"
            }
          ],
          "name": "userProntuario",
          "type": "tuple"
        },
        {
          "name": "set",
          "type": "bool"
        }
      ],
      "payable": false,
      "stateMutability": "view",
      "type": "function",
      "signature": "0xbc14b7dc"
    },
    {
      "anonymous": false,
      "inputs": [
        {
          "indexed": false,
          "name": "userAddress",
          "type": "address"
        },
        {
          "components": [
            {
              "name": "name",
              "type": "string"
            }
          ],
          "indexed": false,
          "name": "userProntuario",
          "type": "tuple"
        }
      ],
      "name": "PacienteCriado",
      "type": "event",
      "signature": "0x71284e8d99762b6497a2063e2095515981cf8fabaeb8e7ba60b7558db58f8e55"
    },
    {
      "constant": false,
      "inputs": [
        {
          "name": "_userAddress",
          "type": "address"
        },
        {
          "name": "_userName",
          "type": "string"
        }
      ],
      "name": "AdicionarPaciente",
      "outputs": [],
      "payable": false,
      "stateMutability": "nonpayable",
      "type": "function",
      "signature": "0x97316d1e"
    }
  ],
  "bytecode": "0x608060405234801561001057600080fd5b5061081f806100206000396000f3fe60806040526004361061004c576000357c0100000000000000000000000000000000000000000000000000000000900463ffffffff16806397316d1e14610051578063bc14b7dc1461007a575b600080fd5b34801561005d57600080fd5b5061007860048036036100739190810190610484565b6100b9565b005b34801561008657600080fd5b506100a1600480360361009c919081019061045b565b610248565b6040516100b09392919061063e565b60405180910390f35b60008060008473ffffffffffffffffffffffffffffffffffffffff1673ffffffffffffffffffffffffffffffffffffffff16815260200190815260200160002090508060020160009054906101000a900460ff1615151561014f576040517f08c379a0000000000000000000000000000000000000000000000000000000008152600401610146906106ac565b60405180910390fd5b828160000160006101000a81548173ffffffffffffffffffffffffffffffffffffffff021916908373ffffffffffffffffffffffffffffffffffffffff16021790555060018160020160006101000a81548160ff021916908315150217905550602060405190810160405280838152508160010160008201518160000190805190602001906101df92919061034c565b509050507f71284e8d99762b6497a2063e2095515981cf8fabaeb8e7ba60b7558db58f8e558160000160009054906101000a900473ffffffffffffffffffffffffffffffffffffffff168260010160405161023b92919061067c565b60405180910390a1505050565b60006020528060005260406000206000915090508060000160009054906101000a900473ffffffffffffffffffffffffffffffffffffffff16908060010160206040519081016040529081600082018054600181600116156101000203166002900480601f01602080910402602001604051908101604052809291908181526020018280546001816001161561010002031660029004801561032b5780601f106103005761010080835404028352916020019161032b565b820191906000526020600020905b81548152906001019060200180831161030e57829003601f168201915b505050505081525050908060020160009054906101000a900460ff16905083565b828054600181600116156101000203166002900490600052602060002090601f016020900481019282601f1061038d57805160ff19168380011785556103bb565b828001600101855582156103bb579182015b828111156103ba57825182559160200191906001019061039f565b5b5090506103c891906103cc565b5090565b6103ee91905b808211156103ea5760008160009055506001016103d2565b5090565b90565b60006103fd8235610780565b905092915050565b600082601f830112151561041857600080fd5b813561042b610426826106f9565b6106cc565b9150808252602083016020830185838301111561044757600080fd5b610452838284610792565b50505092915050565b60006020828403121561046d57600080fd5b600061047b848285016103f1565b91505092915050565b6000806040838503121561049757600080fd5b60006104a5858286016103f1565b925050602083013567ffffffffffffffff8111156104c257600080fd5b6104ce85828601610405565b9150509250929050565b6104e181610742565b82525050565b6104f081610754565b82525050565b600061050182610737565b8084526105158160208601602086016107a1565b61051e816107d4565b602085010191505092915050565b6000815460018116600081146105495760018114610569576105aa565b607f600283041680865260ff1983166020870152604086019350506105aa565b6002820480865260208601955061057f85610725565b60005b828110156105a157815481890152600182019150602081019050610582565b80880195505050505b505092915050565b6000601782527f416c726561647920736574207468652070617469656e740000000000000000006020830152604082019050919050565b6000602083016000830151848203600086015261060682826104f6565b9150508091505092915050565b60006020830160008084018583036000870152610630838261052c565b925050819250505092915050565b600060608201905061065360008301866104d8565b818103602083015261066581856105e9565b905061067460408301846104e7565b949350505050565b600060408201905061069160008301856104d8565b81810360208301526106a38184610613565b90509392505050565b600060208201905081810360008301526106c5816105b2565b9050919050565b6000604051905081810181811067ffffffffffffffff821117156106ef57600080fd5b8060405250919050565b600067ffffffffffffffff82111561071057600080fd5b601f19601f8301169050602081019050919050565b60008160005260206000209050919050565b600081519050919050565b600061074d82610760565b9050919050565b60008115159050919050565b600073ffffffffffffffffffffffffffffffffffffffff82169050919050565b600061078b82610760565b9050919050565b82818337600083830152505050565b60005b838110156107bf5780820151818401526020810190506107a4565b838111156107ce576000848401525b50505050565b6000601f19601f830116905091905056fea265627a7a723058200654fcccc5238f754910cbd3ada9988076c6da83a10359bba6273dc9a471516c6c6578706572696d656e74616cf50037",
  "source": "pragma solidity ^0.5.0;\r\npragma experimental ABIEncoderV2;\r\n\r\ncontract System {\r\n    struct Prontuario {\r\n        string name;\r\n    }\r\n\r\n    struct Paciente {\r\n        address userAddress;\r\n        Prontuario userProntuario;\r\n        bool set;\r\n    }\r\n\r\n    mapping(address => Paciente) public pacientes;\r\n\r\n    event PacienteCriado(\r\n        address userAddress,\r\n        Prontuario userProntuario\r\n    );\r\n\r\n\r\n    function AdicionarPaciente(address _userAddress, string memory _userName) public {\r\n        Paciente storage pc = pacientes[_userAddress];\r\n        // Check that the user did not already exist:\r\n        require(!pc.set, \"Already set the patient\");\r\n        \r\n        pc.userAddress = _userAddress;\r\n        pc.set = true;\r\n        pc.userProntuario = Prontuario(_userName);\r\n\r\n        emit PacienteCriado(pc.userAddress, pc.userProntuario);\r\n       \r\n    }\r\n}",
  "sourcePath": "C:/Users/Lucas/Desktop/TCC/blockchain-sus-rec-client/src/contracts/System.sol",
  "compiler": {
    "name": "solc",
    "version": "0.5.0+commit.1d4f565a.Emscripten.clang"
  },
  "schemaVersion": "3.0.2",
  "updatedAt": "2020-05-04T22:05:09.905Z",
  "devdoc": {
    "methods": {}
  },
  "userdoc": {
    "methods": {}
  }
}