{
  "contractName": "System",
  "abi": [
    {
      "constant": true,
      "inputs": [
        {
          "name": "",
          "type": "address"
        }
      ],
      "name": "pacientes",
      "outputs": [
        {
          "name": "userAddress",
          "type": "address"
        },
        {
          "components": [
            {
              "name": "name",
              "type": "string"
            },
            {
              "name": "cpf",
              "type": "string"
            },
            {
              "name": "nome_social",
              "type": "string"
            },
            {
              "name": "dt_nasc",
              "type": "string"
            },
            {
              "name": "sexo",
              "type": "string"
            },
            {
              "name": "cor_raca",
              "type": "string"
            },
            {
              "name": "nome_da_mae",
              "type": "string"
            },
            {
              "name": "nome_do_pai",
              "type": "string"
            },
            {
              "name": "nacionalidade",
              "type": "string"
            },
            {
              "name": "municipio",
              "type": "string"
            },
            {
              "name": "rg",
              "type": "string"
            },
            {
              "name": "telefone",
              "type": "string"
            },
            {
              "name": "email",
              "type": "string"
            },
            {
              "name": "pais",
              "type": "string"
            },
            {
              "name": "cep",
              "type": "string"
            },
            {
              "name": "estado",
              "type": "string"
            },
            {
              "name": "bairro",
              "type": "string"
            },
            {
              "name": "logradouro",
              "type": "string"
            },
            {
              "name": "numero",
              "type": "string"
            },
            {
              "name": "complemento",
              "type": "string"
            },
            {
              "name": "referencia",
              "type": "string"
            },
            {
              "name": "area",
              "type": "string"
            },
            {
              "name": "microarea",
              "type": "string"
            },
            {
              "name": "estado_civil",
              "type": "string"
            },
            {
              "name": "NIS_PIS_PASEP",
              "type": "string"
            },
            {
              "name": "n_prontuario",
              "type": "string"
            },
            {
              "name": "ocupacao",
              "type": "string"
            },
            {
              "name": "escolaridade",
              "type": "string"
            },
            {
              "name": "tipo_sanguineo",
              "type": "string"
            },
            {
              "name": "orientacao_sexual",
              "type": "string"
            },
            {
              "name": "identidade_de_genero",
              "type": "string"
            }
          ],
          "name": "userProntuario",
          "type": "tuple"
        },
        {
          "name": "set",
          "type": "bool"
        }
      ],
      "payable": false,
      "stateMutability": "view",
      "type": "function",
      "signature": "0xbc14b7dc"
    },
    {
      "anonymous": false,
      "inputs": [
        {
          "indexed": false,
          "name": "userAddress",
          "type": "address"
        },
        {
          "components": [
            {
              "name": "name",
              "type": "string"
            },
            {
              "name": "cpf",
              "type": "string"
            },
            {
              "name": "nome_social",
              "type": "string"
            },
            {
              "name": "dt_nasc",
              "type": "string"
            },
            {
              "name": "sexo",
              "type": "string"
            },
            {
              "name": "cor_raca",
              "type": "string"
            },
            {
              "name": "nome_da_mae",
              "type": "string"
            },
            {
              "name": "nome_do_pai",
              "type": "string"
            },
            {
              "name": "nacionalidade",
              "type": "string"
            },
            {
              "name": "municipio",
              "type": "string"
            },
            {
              "name": "rg",
              "type": "string"
            },
            {
              "name": "telefone",
              "type": "string"
            },
            {
              "name": "email",
              "type": "string"
            },
            {
              "name": "pais",
              "type": "string"
            },
            {
              "name": "cep",
              "type": "string"
            },
            {
              "name": "estado",
              "type": "string"
            },
            {
              "name": "bairro",
              "type": "string"
            },
            {
              "name": "logradouro",
              "type": "string"
            },
            {
              "name": "numero",
              "type": "string"
            },
            {
              "name": "complemento",
              "type": "string"
            },
            {
              "name": "referencia",
              "type": "string"
            },
            {
              "name": "area",
              "type": "string"
            },
            {
              "name": "microarea",
              "type": "string"
            },
            {
              "name": "estado_civil",
              "type": "string"
            },
            {
              "name": "NIS_PIS_PASEP",
              "type": "string"
            },
            {
              "name": "n_prontuario",
              "type": "string"
            },
            {
              "name": "ocupacao",
              "type": "string"
            },
            {
              "name": "escolaridade",
              "type": "string"
            },
            {
              "name": "tipo_sanguineo",
              "type": "string"
            },
            {
              "name": "orientacao_sexual",
              "type": "string"
            },
            {
              "name": "identidade_de_genero",
              "type": "string"
            }
          ],
          "indexed": false,
          "name": "userProntuario",
          "type": "tuple"
        }
      ],
      "name": "PacienteCriado",
      "type": "event",
      "signature": "0x298b1135e74a0fbfe8592f63af4a6bc6e49329b3229e800a61260d924d9a3bc5"
    },
    {
      "constant": false,
      "inputs": [
        {
          "name": "_userAddress",
          "type": "address"
        },
        {
          "name": "_name",
          "type": "string"
        },
        {
          "name": "_cpf",
          "type": "string"
        }
      ],
      "name": "AdicionarPaciente",
      "outputs": [],
      "payable": false,
      "stateMutability": "nonpayable",
      "type": "function",
      "signature": "0x6ac1cd1d"
    }
  ],
  "bytecode": "0x608060405234801561001057600080fd5b50612207806100206000396000f3fe60806040526004361061004c576000357c0100000000000000000000000000000000000000000000000000000000900463ffffffff1680636ac1cd1d14610051578063bc14b7dc1461007a575b600080fd5b34801561005d57600080fd5b5061007860048036036100739190810190611800565b6100b9565b005b34801561008657600080fd5b506100a1600480360361009c91908101906117d7565b6102c7565b6040516100b093929190612026565b60405180910390f35b60008060008573ffffffffffffffffffffffffffffffffffffffff1673ffffffffffffffffffffffffffffffffffffffff16815260200190815260200160002090508060200160009054906101000a900460ff1615151561014f576040517f08c379a000000000000000000000000000000000000000000000000000000000815260040161014690612094565b60405180910390fd5b838160000160006101000a81548173ffffffffffffffffffffffffffffffffffffffff021916908373ffffffffffffffffffffffffffffffffffffffff16021790555060018160200160006101000a81548160ff021916908315150217905550826000808673ffffffffffffffffffffffffffffffffffffffff1673ffffffffffffffffffffffffffffffffffffffff16815260200190815260200160002060010160000190805190602001906102079291906116c8565b50816000808673ffffffffffffffffffffffffffffffffffffffff1673ffffffffffffffffffffffffffffffffffffffff16815260200190815260200160002060010160010190805190602001906102609291906116c8565b507f298b1135e74a0fbfe8592f63af4a6bc6e49329b3229e800a61260d924d9a3bc58160000160009054906101000a900473ffffffffffffffffffffffffffffffffffffffff16826001016040516102b9929190612064565b60405180910390a150505050565b60006020528060005260406000206000915090508060000160009054906101000a900473ffffffffffffffffffffffffffffffffffffffff1690806001016103e06040519081016040529081600082018054600181600116156101000203166002900480601f0160208091040260200160405190810160405280929190818152602001828054600181600116156101000203166002900480156103ab5780601f10610380576101008083540402835291602001916103ab565b820191906000526020600020905b81548152906001019060200180831161038e57829003601f168201915b50505050508152602001600182018054600181600116156101000203166002900480601f01602080910402602001604051908101604052809291908181526020018280546001816001161561010002031660029004801561044d5780601f106104225761010080835404028352916020019161044d565b820191906000526020600020905b81548152906001019060200180831161043057829003601f168201915b50505050508152602001600282018054600181600116156101000203166002900480601f0160208091040260200160405190810160405280929190818152602001828054600181600116156101000203166002900480156104ef5780601f106104c4576101008083540402835291602001916104ef565b820191906000526020600020905b8154815290600101906020018083116104d257829003601f168201915b50505050508152602001600382018054600181600116156101000203166002900480601f0160208091040260200160405190810160405280929190818152602001828054600181600116156101000203166002900480156105915780601f1061056657610100808354040283529160200191610591565b820191906000526020600020905b81548152906001019060200180831161057457829003601f168201915b50505050508152602001600482018054600181600116156101000203166002900480601f0160208091040260200160405190810160405280929190818152602001828054600181600116156101000203166002900480156106335780601f1061060857610100808354040283529160200191610633565b820191906000526020600020905b81548152906001019060200180831161061657829003601f168201915b50505050508152602001600582018054600181600116156101000203166002900480601f0160208091040260200160405190810160405280929190818152602001828054600181600116156101000203166002900480156106d55780601f106106aa576101008083540402835291602001916106d5565b820191906000526020600020905b8154815290600101906020018083116106b857829003601f168201915b50505050508152602001600682018054600181600116156101000203166002900480601f0160208091040260200160405190810160405280929190818152602001828054600181600116156101000203166002900480156107775780601f1061074c57610100808354040283529160200191610777565b820191906000526020600020905b81548152906001019060200180831161075a57829003601f168201915b50505050508152602001600782018054600181600116156101000203166002900480601f0160208091040260200160405190810160405280929190818152602001828054600181600116156101000203166002900480156108195780601f106107ee57610100808354040283529160200191610819565b820191906000526020600020905b8154815290600101906020018083116107fc57829003601f168201915b50505050508152602001600882018054600181600116156101000203166002900480601f0160208091040260200160405190810160405280929190818152602001828054600181600116156101000203166002900480156108bb5780601f10610890576101008083540402835291602001916108bb565b820191906000526020600020905b81548152906001019060200180831161089e57829003601f168201915b50505050508152602001600982018054600181600116156101000203166002900480601f01602080910402602001604051908101604052809291908181526020018280546001816001161561010002031660029004801561095d5780601f106109325761010080835404028352916020019161095d565b820191906000526020600020905b81548152906001019060200180831161094057829003601f168201915b50505050508152602001600a82018054600181600116156101000203166002900480601f0160208091040260200160405190810160405280929190818152602001828054600181600116156101000203166002900480156109ff5780601f106109d4576101008083540402835291602001916109ff565b820191906000526020600020905b8154815290600101906020018083116109e257829003601f168201915b50505050508152602001600b82018054600181600116156101000203166002900480601f016020809104026020016040519081016040528092919081815260200182805460018160011615610100020316600290048015610aa15780601f10610a7657610100808354040283529160200191610aa1565b820191906000526020600020905b815481529060010190602001808311610a8457829003601f168201915b50505050508152602001600c82018054600181600116156101000203166002900480601f016020809104026020016040519081016040528092919081815260200182805460018160011615610100020316600290048015610b435780601f10610b1857610100808354040283529160200191610b43565b820191906000526020600020905b815481529060010190602001808311610b2657829003601f168201915b50505050508152602001600d82018054600181600116156101000203166002900480601f016020809104026020016040519081016040528092919081815260200182805460018160011615610100020316600290048015610be55780601f10610bba57610100808354040283529160200191610be5565b820191906000526020600020905b815481529060010190602001808311610bc857829003601f168201915b50505050508152602001600e82018054600181600116156101000203166002900480601f016020809104026020016040519081016040528092919081815260200182805460018160011615610100020316600290048015610c875780601f10610c5c57610100808354040283529160200191610c87565b820191906000526020600020905b815481529060010190602001808311610c6a57829003601f168201915b50505050508152602001600f82018054600181600116156101000203166002900480601f016020809104026020016040519081016040528092919081815260200182805460018160011615610100020316600290048015610d295780601f10610cfe57610100808354040283529160200191610d29565b820191906000526020600020905b815481529060010190602001808311610d0c57829003601f168201915b50505050508152602001601082018054600181600116156101000203166002900480601f016020809104026020016040519081016040528092919081815260200182805460018160011615610100020316600290048015610dcb5780601f10610da057610100808354040283529160200191610dcb565b820191906000526020600020905b815481529060010190602001808311610dae57829003601f168201915b50505050508152602001601182018054600181600116156101000203166002900480601f016020809104026020016040519081016040528092919081815260200182805460018160011615610100020316600290048015610e6d5780601f10610e4257610100808354040283529160200191610e6d565b820191906000526020600020905b815481529060010190602001808311610e5057829003601f168201915b50505050508152602001601282018054600181600116156101000203166002900480601f016020809104026020016040519081016040528092919081815260200182805460018160011615610100020316600290048015610f0f5780601f10610ee457610100808354040283529160200191610f0f565b820191906000526020600020905b815481529060010190602001808311610ef257829003601f168201915b50505050508152602001601382018054600181600116156101000203166002900480601f016020809104026020016040519081016040528092919081815260200182805460018160011615610100020316600290048015610fb15780601f10610f8657610100808354040283529160200191610fb1565b820191906000526020600020905b815481529060010190602001808311610f9457829003601f168201915b50505050508152602001601482018054600181600116156101000203166002900480601f0160208091040260200160405190810160405280929190818152602001828054600181600116156101000203166002900480156110535780601f1061102857610100808354040283529160200191611053565b820191906000526020600020905b81548152906001019060200180831161103657829003601f168201915b50505050508152602001601582018054600181600116156101000203166002900480601f0160208091040260200160405190810160405280929190818152602001828054600181600116156101000203166002900480156110f55780601f106110ca576101008083540402835291602001916110f5565b820191906000526020600020905b8154815290600101906020018083116110d857829003601f168201915b50505050508152602001601682018054600181600116156101000203166002900480601f0160208091040260200160405190810160405280929190818152602001828054600181600116156101000203166002900480156111975780601f1061116c57610100808354040283529160200191611197565b820191906000526020600020905b81548152906001019060200180831161117a57829003601f168201915b50505050508152602001601782018054600181600116156101000203166002900480601f0160208091040260200160405190810160405280929190818152602001828054600181600116156101000203166002900480156112395780601f1061120e57610100808354040283529160200191611239565b820191906000526020600020905b81548152906001019060200180831161121c57829003601f168201915b50505050508152602001601882018054600181600116156101000203166002900480601f0160208091040260200160405190810160405280929190818152602001828054600181600116156101000203166002900480156112db5780601f106112b0576101008083540402835291602001916112db565b820191906000526020600020905b8154815290600101906020018083116112be57829003601f168201915b50505050508152602001601982018054600181600116156101000203166002900480601f01602080910402602001604051908101604052809291908181526020018280546001816001161561010002031660029004801561137d5780601f106113525761010080835404028352916020019161137d565b820191906000526020600020905b81548152906001019060200180831161136057829003601f168201915b50505050508152602001601a82018054600181600116156101000203166002900480601f01602080910402602001604051908101604052809291908181526020018280546001816001161561010002031660029004801561141f5780601f106113f45761010080835404028352916020019161141f565b820191906000526020600020905b81548152906001019060200180831161140257829003601f168201915b50505050508152602001601b82018054600181600116156101000203166002900480601f0160208091040260200160405190810160405280929190818152602001828054600181600116156101000203166002900480156114c15780601f10611496576101008083540402835291602001916114c1565b820191906000526020600020905b8154815290600101906020018083116114a457829003601f168201915b50505050508152602001601c82018054600181600116156101000203166002900480601f0160208091040260200160405190810160405280929190818152602001828054600181600116156101000203166002900480156115635780601f1061153857610100808354040283529160200191611563565b820191906000526020600020905b81548152906001019060200180831161154657829003601f168201915b50505050508152602001601d82018054600181600116156101000203166002900480601f0160208091040260200160405190810160405280929190818152602001828054600181600116156101000203166002900480156116055780601f106115da57610100808354040283529160200191611605565b820191906000526020600020905b8154815290600101906020018083116115e857829003601f168201915b50505050508152602001601e82018054600181600116156101000203166002900480601f0160208091040260200160405190810160405280929190818152602001828054600181600116156101000203166002900480156116a75780601f1061167c576101008083540402835291602001916116a7565b820191906000526020600020905b81548152906001019060200180831161168a57829003601f168201915b505050505081525050908060200160009054906101000a900460ff16905083565b828054600181600116156101000203166002900490600052602060002090601f016020900481019282601f1061170957805160ff1916838001178555611737565b82800160010185558215611737579182015b8281111561173657825182559160200191906001019061171b565b5b5090506117449190611748565b5090565b61176a91905b8082111561176657600081600090555060010161174e565b5090565b90565b60006117798235612168565b905092915050565b600082601f830112151561179457600080fd5b81356117a76117a2826120e1565b6120b4565b915080825260208301602083018583830111156117c357600080fd5b6117ce83828461217a565b50505092915050565b6000602082840312156117e957600080fd5b60006117f78482850161176d565b91505092915050565b60008060006060848603121561181557600080fd5b60006118238682870161176d565b935050602084013567ffffffffffffffff81111561184057600080fd5b61184c86828701611781565b925050604084013567ffffffffffffffff81111561186957600080fd5b61187586828701611781565b9150509250925092565b6118888161212a565b82525050565b6118978161213c565b82525050565b60006118a88261211f565b8084526118bc816020860160208601612189565b6118c5816121bc565b602085010191505092915050565b6000815460018116600081146118f0576001811461191057611951565b607f600283041680865260ff198316602087015260408601935050611951565b600282048086526020860195506119268561210d565b60005b8281101561194857815481890152600182019150602081019050611929565b80880195505050505b505092915050565b6000601782527f416c726561647920736574207468652070617469656e740000000000000000006020830152604082019050919050565b60006103e08301600083015184820360008601526119ae828261189d565b915050602083015184820360208601526119c8828261189d565b915050604083015184820360408601526119e2828261189d565b915050606083015184820360608601526119fc828261189d565b91505060808301518482036080860152611a16828261189d565b91505060a083015184820360a0860152611a30828261189d565b91505060c083015184820360c0860152611a4a828261189d565b91505060e083015184820360e0860152611a64828261189d565b915050610100830151848203610100860152611a80828261189d565b915050610120830151848203610120860152611a9c828261189d565b915050610140830151848203610140860152611ab8828261189d565b915050610160830151848203610160860152611ad4828261189d565b915050610180830151848203610180860152611af0828261189d565b9150506101a08301518482036101a0860152611b0c828261189d565b9150506101c08301518482036101c0860152611b28828261189d565b9150506101e08301518482036101e0860152611b44828261189d565b915050610200830151848203610200860152611b60828261189d565b915050610220830151848203610220860152611b7c828261189d565b915050610240830151848203610240860152611b98828261189d565b915050610260830151848203610260860152611bb4828261189d565b915050610280830151848203610280860152611bd0828261189d565b9150506102a08301518482036102a0860152611bec828261189d565b9150506102c08301518482036102c0860152611c08828261189d565b9150506102e08301518482036102e0860152611c24828261189d565b915050610300830151848203610300860152611c40828261189d565b915050610320830151848203610320860152611c5c828261189d565b915050610340830151848203610340860152611c78828261189d565b915050610360830151848203610360860152611c94828261189d565b915050610380830151848203610380860152611cb0828261189d565b9150506103a08301518482036103a0860152611ccc828261189d565b9150506103c08301518482036103c0860152611ce8828261189d565b9150508091505092915050565b60006103e0830160008084018583036000870152611d1383826118d3565b925050600184018583036020870152611d2c83826118d3565b925050600284018583036040870152611d4583826118d3565b925050600384018583036060870152611d5e83826118d3565b925050600484018583036080870152611d7783826118d3565b9250506005840185830360a0870152611d9083826118d3565b9250506006840185830360c0870152611da983826118d3565b9250506007840185830360e0870152611dc283826118d3565b92505060088401858303610100870152611ddc83826118d3565b92505060098401858303610120870152611df683826118d3565b925050600a8401858303610140870152611e1083826118d3565b925050600b8401858303610160870152611e2a83826118d3565b925050600c8401858303610180870152611e4483826118d3565b925050600d84018583036101a0870152611e5e83826118d3565b925050600e84018583036101c0870152611e7883826118d3565b925050600f84018583036101e0870152611e9283826118d3565b92505060108401858303610200870152611eac83826118d3565b92505060118401858303610220870152611ec683826118d3565b92505060128401858303610240870152611ee083826118d3565b92505060138401858303610260870152611efa83826118d3565b92505060148401858303610280870152611f1483826118d3565b925050601584018583036102a0870152611f2e83826118d3565b925050601684018583036102c0870152611f4883826118d3565b925050601784018583036102e0870152611f6283826118d3565b92505060188401858303610300870152611f7c83826118d3565b92505060198401858303610320870152611f9683826118d3565b925050601a8401858303610340870152611fb083826118d3565b925050601b8401858303610360870152611fca83826118d3565b925050601c8401858303610380870152611fe483826118d3565b925050601d84018583036103a0870152611ffe83826118d3565b925050601e84018583036103c087015261201883826118d3565b925050819250505092915050565b600060608201905061203b600083018661187f565b818103602083015261204d8185611990565b905061205c604083018461188e565b949350505050565b6000604082019050612079600083018561187f565b818103602083015261208b8184611cf5565b90509392505050565b600060208201905081810360008301526120ad81611959565b9050919050565b6000604051905081810181811067ffffffffffffffff821117156120d757600080fd5b8060405250919050565b600067ffffffffffffffff8211156120f857600080fd5b601f19601f8301169050602081019050919050565b60008160005260206000209050919050565b600081519050919050565b600061213582612148565b9050919050565b60008115159050919050565b600073ffffffffffffffffffffffffffffffffffffffff82169050919050565b600061217382612148565b9050919050565b82818337600083830152505050565b60005b838110156121a757808201518184015260208101905061218c565b838111156121b6576000848401525b50505050565b6000601f19601f830116905091905056fea265627a7a7230582097874be5d710c0354cdc2b638cf842db752c2757caa48fcd68733bf794b9ac486c6578706572696d656e74616cf50037",
  "source": "pragma solidity ^0.5.0;\r\npragma experimental ABIEncoderV2;\r\n\r\ncontract System {\r\n    struct Prontuario {\r\n        string name;\r\n        string cpf;\r\n        string nome_social;\r\n        string dt_nasc;\r\n        string sexo;\r\n        string cor_raca; \r\n        string nome_da_mae;\r\n        string nome_do_pai;\r\n\r\n        string nacionalidade;\r\n        string municipio;\r\n        string rg;\r\n        string telefone; \r\n        string email;\r\n        string pais;\r\n        string cep; \r\n        string estado; \r\n        \r\n        string bairro; \r\n        string logradouro;\r\n        string numero; \r\n        string complemento;\r\n        string referencia;\r\n        string area;\r\n        string microarea;\r\n\r\n        string estado_civil;\r\n        string NIS_PIS_PASEP;\r\n        string n_prontuario;\r\n        string ocupacao; \r\n        string escolaridade;\r\n        string tipo_sanguineo; \r\n\r\n        string orientacao_sexual;\r\n        string identidade_de_genero;\r\n    }\r\n\r\n\r\n    struct Paciente {\r\n        address userAddress;\r\n        Prontuario userProntuario;\r\n        bool set;\r\n    }\r\n\r\n    mapping(address => Paciente) public pacientes;\r\n\r\n    event PacienteCriado(\r\n        address userAddress,\r\n        Prontuario userProntuario\r\n    );\r\n\r\n\r\n    function AdicionarPaciente(address _userAddress,\r\n        string memory _name,\r\n        string memory _cpf\r\n        /*string memory _nome_social,\r\n        string memory _dt_nasc,\r\n        string memory _sexo,\r\n        string memory _cor_raca,\r\n        string memory _nacionalidade*/\r\n       ) public {\r\n        Paciente storage pc = pacientes[_userAddress];\r\n        // Check that the user did not already exist:\r\n        require(!pc.set, \"Already set the patient\");\r\n        \r\n        pc.userAddress = _userAddress;\r\n        pc.set = true;\r\n\r\n        pacientes[_userAddress].userProntuario.name = _name;\r\n        pacientes[_userAddress].userProntuario.cpf = _cpf;\r\n        /*pacientes[_userAddress].userProntuario.nome_social = _nome_social;\r\n        pacientes[_userAddress].userProntuario.dt_nasc = _dt_nasc;\r\n        pacientes[_userAddress].userProntuario.sexo = _sexo;\r\n        pacientes[_userAddress].userProntuario.cor_raca = _cor_raca;\r\n        pacientes[_userAddress].userProntuario.nacionalidade = _nacionalidade;*/\r\n\r\n        /*pc.userProntuario = Prontuario(_name,\r\n         _cpf,\r\n         _nome_social,\r\n         _dt_nasc,\r\n         _sexo,\r\n         _cor_raca,        \r\n         _nacionalidade\r\n      );*/\r\n\r\n        emit PacienteCriado(pc.userAddress, pc.userProntuario);\r\n       \r\n    }\r\n}\r\n/* \r\n\r\n string memory _nome_da_mae,\r\n        string memory _nome_do_pai,\r\n        \r\n        string memory _municipio,\r\n        string memory _rg,\r\n        string memory _telefone,\r\n        string memory _email,\r\n        string memory _pais,\r\n        string memory _cep,\r\n        string memory _estado,\r\n        string memory _bairro,\r\n        string memory _logradouro,\r\n        string memory _numero,\r\n        string memory _complemento,\r\n        string memory _referencia,\r\n        string memory _area,\r\n        string memory _microarea,\r\n        string memory _estado_civil,\r\n        string memory _NIS_PIS_PASEP,\r\n        string memory _n_prontuario,\r\n        string memory _ocupacao,\r\n        string memory _escolaridade,\r\n        string memory _tipo_sanguineo,\r\n        string memory _orientacao_sexual,\r\n        string memory _identidade_de_genero\r\n*/",
  "sourcePath": "C:/Users/Lucas/Desktop/TCC/blockchain-sus-rec-client/src/contracts/System.sol",
  "compiler": {
    "name": "solc",
    "version": "0.5.0+commit.1d4f565a.Emscripten.clang"
  },
  "schemaVersion": "3.0.2",
  "updatedAt": "2020-05-07T01:41:49.065Z",
  "devdoc": {
    "methods": {}
  },
  "userdoc": {
    "methods": {}
  }
}