{
  "contractName": "System",
  "abi": [
    {
      "constant": true,
      "inputs": [
        {
          "name": "",
          "type": "address"
        }
      ],
      "name": "pacientes",
      "outputs": [
        {
          "name": "userAddress",
          "type": "address"
        },
        {
          "components": [
            {
              "name": "name",
              "type": "string"
            }
          ],
          "name": "userProntuario",
          "type": "tuple"
        },
        {
          "name": "set",
          "type": "bool"
        }
      ],
      "payable": false,
      "stateMutability": "view",
      "type": "function",
      "signature": "0xbc14b7dc"
    },
    {
      "constant": false,
      "inputs": [
        {
          "name": "_userAddress",
          "type": "address"
        },
        {
          "name": "_userName",
          "type": "string"
        }
      ],
      "name": "AdicionarPaciente",
      "outputs": [],
      "payable": false,
      "stateMutability": "nonpayable",
      "type": "function",
      "signature": "0x97316d1e"
    }
  ],
  "bytecode": "0x608060405234801561001057600080fd5b506106cc806100206000396000f3fe60806040526004361061004c576000357c0100000000000000000000000000000000000000000000000000000000900463ffffffff16806397316d1e14610051578063bc14b7dc1461007a575b600080fd5b34801561005d57600080fd5b5061007860048036036100739190810190610424565b6100b9565b005b34801561008657600080fd5b506100a1600480360361009c91908101906103fb565b6101e8565b6040516100b09392919061052d565b60405180910390f35b60008060008473ffffffffffffffffffffffffffffffffffffffff1673ffffffffffffffffffffffffffffffffffffffff16815260200190815260200160002090508060020160009054906101000a900460ff1615151561014f576040517f08c379a00000000000000000000000000000000000000000000000000000000081526004016101469061056b565b60405180910390fd5b828160000160006101000a81548173ffffffffffffffffffffffffffffffffffffffff021916908373ffffffffffffffffffffffffffffffffffffffff16021790555060018160020160006101000a81548160ff021916908315150217905550602060405190810160405280838152508160010160008201518160000190805190602001906101df9291906102ec565b50905050505050565b60006020528060005260406000206000915090508060000160009054906101000a900473ffffffffffffffffffffffffffffffffffffffff16908060010160206040519081016040529081600082018054600181600116156101000203166002900480601f0160208091040260200160405190810160405280929190818152602001828054600181600116156101000203166002900480156102cb5780601f106102a0576101008083540402835291602001916102cb565b820191906000526020600020905b8154815290600101906020018083116102ae57829003601f168201915b505050505081525050908060020160009054906101000a900460ff16905083565b828054600181600116156101000203166002900490600052602060002090601f016020900481019282601f1061032d57805160ff191683800117855561035b565b8280016001018555821561035b579182015b8281111561035a57825182559160200191906001019061033f565b5b509050610368919061036c565b5090565b61038e91905b8082111561038a576000816000905550600101610372565b5090565b90565b600061039d823561062d565b905092915050565b600082601f83011215156103b857600080fd5b81356103cb6103c6826105b8565b61058b565b915080825260208301602083018583830111156103e757600080fd5b6103f283828461063f565b50505092915050565b60006020828403121561040d57600080fd5b600061041b84828501610391565b91505092915050565b6000806040838503121561043757600080fd5b600061044585828601610391565b925050602083013567ffffffffffffffff81111561046257600080fd5b61046e858286016103a5565b9150509250929050565b610481816105ef565b82525050565b61049081610601565b82525050565b60006104a1826105e4565b8084526104b581602086016020860161064e565b6104be81610681565b602085010191505092915050565b6000601782527f416c726561647920736574207468652070617469656e740000000000000000006020830152604082019050919050565b600060208301600083015184820360008601526105208282610496565b9150508091505092915050565b60006060820190506105426000830186610478565b81810360208301526105548185610503565b90506105636040830184610487565b949350505050565b60006020820190508181036000830152610584816104cc565b9050919050565b6000604051905081810181811067ffffffffffffffff821117156105ae57600080fd5b8060405250919050565b600067ffffffffffffffff8211156105cf57600080fd5b601f19601f8301169050602081019050919050565b600081519050919050565b60006105fa8261060d565b9050919050565b60008115159050919050565b600073ffffffffffffffffffffffffffffffffffffffff82169050919050565b60006106388261060d565b9050919050565b82818337600083830152505050565b60005b8381101561066c578082015181840152602081019050610651565b8381111561067b576000848401525b50505050565b6000601f19601f830116905091905056fea265627a7a723058204c904c24f0faa86e559bbcf916c19e845a0fa6ac01c99bb7b0e619e1025ebab36c6578706572696d656e74616cf50037",
  "source": "pragma solidity ^0.5.0;\r\npragma experimental ABIEncoderV2;\r\n\r\ncontract System {\r\n    struct Prontuario {\r\n        string name;\r\n    }\r\n\r\n    struct Paciente {\r\n        address userAddress;\r\n        Prontuario userProntuario;\r\n        bool set;\r\n    }\r\n\r\n    mapping(address => Paciente) public pacientes;\r\n\r\n    function AdicionarPaciente(address _userAddress, string memory _userName) public {\r\n        Paciente storage pc = pacientes[_userAddress];\r\n        // Check that the user did not already exist:\r\n        require(!pc.set, \"Already set the patient\");\r\n        \r\n        pc.userAddress = _userAddress;\r\n        pc.set = true;\r\n        pc.userProntuario = Prontuario(_userName);\r\n        \r\n        //Prontuario memory p = Prontuario(_userName);\r\n        //Store the user\r\n        /*pacientes[_userAddress] = Paciente({\r\n            userAddress: _userAddress,\r\n            userProntuario: p,\r\n            set: true\r\n        });*/\r\n    }\r\n}",
  "sourcePath": "C:/Users/Lucas/Desktop/blockchain-sus-rec-client/src/contracts/System.sol",
  "compiler": {
    "name": "solc",
    "version": "0.5.0+commit.1d4f565a.Emscripten.clang"
  },
  "schemaVersion": "3.0.2",
  "updatedAt": "2020-05-03T23:47:14.041Z",
  "devdoc": {
    "methods": {}
  },
  "userdoc": {
    "methods": {}
  }
}