{
    "contractName": "Paciente",
    "abi": [
        {
            "inputs": [
                {
                    "internalType": "address",
                    "name": "_userAddress",
                    "type": "address"
                },
                {
                    "internalType": "string[]",
                    "name": "userData",
                    "type": "string[]"
                }
            ],
            "name": "AdicionarPaciente",
            "outputs": [],
            "stateMutability": "nonpayable",
            "type": "function"
        },
        {
            "inputs": [
                {
                    "internalType": "address",
                    "name": "",
                    "type": "address"
                }
            ],
            "name": "pacientes",
            "outputs": [
                {
                    "components": [
                        {
                            "internalType": "string",
                            "name": "name",
                            "type": "string"
                        },
                        {
                            "internalType": "string",
                            "name": "cpf",
                            "type": "string"
                        },
                        {
                            "internalType": "string",
                            "name": "nome_social",
                            "type": "string"
                        },
                        {
                            "internalType": "string",
                            "name": "dt_nasc",
                            "type": "string"
                        },
                        {
                            "internalType": "string",
                            "name": "sexo",
                            "type": "string"
                        },
                        {
                            "internalType": "string",
                            "name": "cor_raca",
                            "type": "string"
                        },
                        {
                            "internalType": "string",
                            "name": "rg",
                            "type": "string"
                        },
                        {
                            "internalType": "string",
                            "name": "nacionalidade",
                            "type": "string"
                        },
                        {
                            "internalType": "string",
                            "name": "municipio",
                            "type": "string"
                        },
                        {
                            "internalType": "string",
                            "name": "telefone",
                            "type": "string"
                        },
                        {
                            "internalType": "string",
                            "name": "email",
                            "type": "string"
                        },
                        {
                            "internalType": "string",
                            "name": "pais",
                            "type": "string"
                        },
                        {
                            "internalType": "string",
                            "name": "orientacao_sexual",
                            "type": "string"
                        },
                        {
                            "internalType": "string",
                            "name": "identidade_de_genero",
                            "type": "string"
                        },
                        {
                            "internalType": "string",
                            "name": "cep",
                            "type": "string"
                        },
                        {
                            "internalType": "string",
                            "name": "estado",
                            "type": "string"
                        },
                        {
                            "internalType": "string",
                            "name": "bairro",
                            "type": "string"
                        },
                        {
                            "internalType": "string",
                            "name": "logradouro",
                            "type": "string"
                        },
                        {
                            "internalType": "string",
                            "name": "numero",
                            "type": "string"
                        },
                        {
                            "internalType": "string",
                            "name": "complemento",
                            "type": "string"
                        },
                        {
                            "internalType": "string",
                            "name": "referencia",
                            "type": "string"
                        },
                        {
                            "internalType": "string",
                            "name": "area",
                            "type": "string"
                        },
                        {
                            "internalType": "string",
                            "name": "microarea",
                            "type": "string"
                        },
                        {
                            "internalType": "string",
                            "name": "nome_da_mae",
                            "type": "string"
                        },
                        {
                            "internalType": "string",
                            "name": "nome_do_pai",
                            "type": "string"
                        },
                        {
                            "internalType": "string",
                            "name": "estado_civil",
                            "type": "string"
                        },
                        {
                            "internalType": "string",
                            "name": "NIS_PIS_PASEP",
                            "type": "string"
                        },
                        {
                            "internalType": "string",
                            "name": "n_prontuario",
                            "type": "string"
                        },
                        {
                            "internalType": "string",
                            "name": "ocupacao",
                            "type": "string"
                        },
                        {
                            "internalType": "string",
                            "name": "escolaridade",
                            "type": "string"
                        },
                        {
                            "internalType": "string",
                            "name": "tipo_sanguineo",
                            "type": "string"
                        }
                    ],
                    "internalType": "struct Prontuario.data",
                    "name": "userProntuario",
                    "type": "tuple"
                }
            ],
            "stateMutability": "view",
            "type": "function"
        }
    ],
    "bytecode": "608060405234801561001057600080fd5b50612163806100206000396000f3fe608060405234801561001057600080fd5b50600436106100365760003560e01c8063bc14b7dc1461003b578063d556d63314610064575b600080fd5b61004e610049366004611bec565b610079565b60405161005b9190611d09565b60405180910390f35b610077610072366004611c1a565b61128d565b005b600060208181529181526040908190208151815460026001821615610100026000190190911604601f810185900490940281016104009081019093526103e081018481529193909284928492909184919084018282801561011b5780601f106100f05761010080835404028352916020019161011b565b820191906000526020600020905b8154815290600101906020018083116100fe57829003601f168201915b50505050508152602001600182018054600181600116156101000203166002900480601f0160208091040260200160405190810160405280929190818152602001828054600181600116156101000203166002900480156101bd5780601f10610192576101008083540402835291602001916101bd565b820191906000526020600020905b8154815290600101906020018083116101a057829003601f168201915b5050509183525050600282810180546040805160206001841615610100026000190190931694909404601f8101839004830285018301909152808452938101939083018282801561024f5780601f106102245761010080835404028352916020019161024f565b820191906000526020600020905b81548152906001019060200180831161023257829003601f168201915b505050918352505060038201805460408051602060026001851615610100026000190190941693909304601f81018490048402820184019092528181529382019392918301828280156102e35780601f106102b8576101008083540402835291602001916102e3565b820191906000526020600020905b8154815290600101906020018083116102c657829003601f168201915b505050918352505060048201805460408051602060026001851615610100026000190190941693909304601f81018490048402820184019092528181529382019392918301828280156103775780601f1061034c57610100808354040283529160200191610377565b820191906000526020600020905b81548152906001019060200180831161035a57829003601f168201915b505050918352505060058201805460408051602060026001851615610100026000190190941693909304601f810184900484028201840190925281815293820193929183018282801561040b5780601f106103e05761010080835404028352916020019161040b565b820191906000526020600020905b8154815290600101906020018083116103ee57829003601f168201915b505050918352505060068201805460408051602060026001851615610100026000190190941693909304601f810184900484028201840190925281815293820193929183018282801561049f5780601f106104745761010080835404028352916020019161049f565b820191906000526020600020905b81548152906001019060200180831161048257829003601f168201915b505050918352505060078201805460408051602060026001851615610100026000190190941693909304601f81018490048402820184019092528181529382019392918301828280156105335780601f1061050857610100808354040283529160200191610533565b820191906000526020600020905b81548152906001019060200180831161051657829003601f168201915b505050918352505060088201805460408051602060026001851615610100026000190190941693909304601f81018490048402820184019092528181529382019392918301828280156105c75780601f1061059c576101008083540402835291602001916105c7565b820191906000526020600020905b8154815290600101906020018083116105aa57829003601f168201915b505050918352505060098201805460408051602060026001851615610100026000190190941693909304601f810184900484028201840190925281815293820193929183018282801561065b5780601f106106305761010080835404028352916020019161065b565b820191906000526020600020905b81548152906001019060200180831161063e57829003601f168201915b5050509183525050600a8201805460408051602060026001851615610100026000190190941693909304601f81018490048402820184019092528181529382019392918301828280156106ef5780601f106106c4576101008083540402835291602001916106ef565b820191906000526020600020905b8154815290600101906020018083116106d257829003601f168201915b5050509183525050600b8201805460408051602060026001851615610100026000190190941693909304601f81018490048402820184019092528181529382019392918301828280156107835780601f1061075857610100808354040283529160200191610783565b820191906000526020600020905b81548152906001019060200180831161076657829003601f168201915b5050509183525050600c8201805460408051602060026001851615610100026000190190941693909304601f81018490048402820184019092528181529382019392918301828280156108175780601f106107ec57610100808354040283529160200191610817565b820191906000526020600020905b8154815290600101906020018083116107fa57829003601f168201915b5050509183525050600d8201805460408051602060026001851615610100026000190190941693909304601f81018490048402820184019092528181529382019392918301828280156108ab5780601f10610880576101008083540402835291602001916108ab565b820191906000526020600020905b81548152906001019060200180831161088e57829003601f168201915b5050509183525050600e8201805460408051602060026001851615610100026000190190941693909304601f810184900484028201840190925281815293820193929183018282801561093f5780601f106109145761010080835404028352916020019161093f565b820191906000526020600020905b81548152906001019060200180831161092257829003601f168201915b5050509183525050600f8201805460408051602060026001851615610100026000190190941693909304601f81018490048402820184019092528181529382019392918301828280156109d35780601f106109a8576101008083540402835291602001916109d3565b820191906000526020600020905b8154815290600101906020018083116109b657829003601f168201915b505050918352505060108201805460408051602060026001851615610100026000190190941693909304601f8101849004840282018401909252818152938201939291830182828015610a675780601f10610a3c57610100808354040283529160200191610a67565b820191906000526020600020905b815481529060010190602001808311610a4a57829003601f168201915b505050918352505060118201805460408051602060026001851615610100026000190190941693909304601f8101849004840282018401909252818152938201939291830182828015610afb5780601f10610ad057610100808354040283529160200191610afb565b820191906000526020600020905b815481529060010190602001808311610ade57829003601f168201915b505050918352505060128201805460408051602060026001851615610100026000190190941693909304601f8101849004840282018401909252818152938201939291830182828015610b8f5780601f10610b6457610100808354040283529160200191610b8f565b820191906000526020600020905b815481529060010190602001808311610b7257829003601f168201915b505050918352505060138201805460408051602060026001851615610100026000190190941693909304601f8101849004840282018401909252818152938201939291830182828015610c235780601f10610bf857610100808354040283529160200191610c23565b820191906000526020600020905b815481529060010190602001808311610c0657829003601f168201915b505050918352505060148201805460408051602060026001851615610100026000190190941693909304601f8101849004840282018401909252818152938201939291830182828015610cb75780601f10610c8c57610100808354040283529160200191610cb7565b820191906000526020600020905b815481529060010190602001808311610c9a57829003601f168201915b505050918352505060158201805460408051602060026001851615610100026000190190941693909304601f8101849004840282018401909252818152938201939291830182828015610d4b5780601f10610d2057610100808354040283529160200191610d4b565b820191906000526020600020905b815481529060010190602001808311610d2e57829003601f168201915b505050918352505060168201805460408051602060026001851615610100026000190190941693909304601f8101849004840282018401909252818152938201939291830182828015610ddf5780601f10610db457610100808354040283529160200191610ddf565b820191906000526020600020905b815481529060010190602001808311610dc257829003601f168201915b505050918352505060178201805460408051602060026001851615610100026000190190941693909304601f8101849004840282018401909252818152938201939291830182828015610e735780601f10610e4857610100808354040283529160200191610e73565b820191906000526020600020905b815481529060010190602001808311610e5657829003601f168201915b505050918352505060188201805460408051602060026001851615610100026000190190941693909304601f8101849004840282018401909252818152938201939291830182828015610f075780601f10610edc57610100808354040283529160200191610f07565b820191906000526020600020905b815481529060010190602001808311610eea57829003601f168201915b505050918352505060198201805460408051602060026001851615610100026000190190941693909304601f8101849004840282018401909252818152938201939291830182828015610f9b5780601f10610f7057610100808354040283529160200191610f9b565b820191906000526020600020905b815481529060010190602001808311610f7e57829003601f168201915b5050509183525050601a8201805460408051602060026001851615610100026000190190941693909304601f810184900484028201840190925281815293820193929183018282801561102f5780601f106110045761010080835404028352916020019161102f565b820191906000526020600020905b81548152906001019060200180831161101257829003601f168201915b5050509183525050601b8201805460408051602060026001851615610100026000190190941693909304601f81018490048402820184019092528181529382019392918301828280156110c35780601f10611098576101008083540402835291602001916110c3565b820191906000526020600020905b8154815290600101906020018083116110a657829003601f168201915b5050509183525050601c8201805460408051602060026001851615610100026000190190941693909304601f81018490048402820184019092528181529382019392918301828280156111575780601f1061112c57610100808354040283529160200191611157565b820191906000526020600020905b81548152906001019060200180831161113a57829003601f168201915b5050509183525050601d8201805460408051602060026001851615610100026000190190941693909304601f81018490048402820184019092528181529382019392918301828280156111eb5780601f106111c0576101008083540402835291602001916111eb565b820191906000526020600020905b8154815290600101906020018083116111ce57829003601f168201915b5050509183525050601e8201805460408051602060026001851615610100026000190190941693909304601f810184900484028201840190925281815293820193929183018282801561127f5780601f106112545761010080835404028352916020019161127f565b820191906000526020600020905b81548152906001019060200180831161126257829003601f168201915b505050505081525050905081565b8060008151811061129a57fe5b6020908102919091018101516001600160a01b03841660009081528083526040902081516112cd93919290910190611ae8565b50806001815181106112db57fe5b6020908102919091018101516001600160a01b03841660009081528083526040902081516113129360019092019290910190611ae8565b508060028151811061132057fe5b6020908102919091018101516001600160a01b03841660009081528083526040902081516113579360069092019290910190611ae8565b508060038151811061136557fe5b6020908102919091018101516001600160a01b038416600090815280835260409020815161139c9360029092019290910190611ae8565b50806004815181106113aa57fe5b6020908102919091018101516001600160a01b03841660009081528083526040902081516113e19360039092019290910190611ae8565b50806005815181106113ef57fe5b6020908102919091018101516001600160a01b03841660009081528083526040902081516114269360049092019290910190611ae8565b508060068151811061143457fe5b6020908102919091018101516001600160a01b038416600090815280835260409020815161146b9360059092019290910190611ae8565b508060078151811061147957fe5b6020908102919091018101516001600160a01b03841660009081528083526040902081516114b09360079092019290910190611ae8565b50806008815181106114be57fe5b6020908102919091018101516001600160a01b03841660009081528083526040902081516114f59360089092019290910190611ae8565b508060098151811061150357fe5b6020908102919091018101516001600160a01b038416600090815280835260409020815161153a9360099092019290910190611ae8565b5080600a8151811061154857fe5b6020908102919091018101516001600160a01b038416600090815280835260409020815161157f93600a9092019290910190611ae8565b5080600b8151811061158d57fe5b6020908102919091018101516001600160a01b03841660009081528083526040902081516115c493600b9092019290910190611ae8565b5080600c815181106115d257fe5b6020908102919091018101516001600160a01b038416600090815280835260409020815161160993600e9092019290910190611ae8565b5080600d8151811061161757fe5b6020908102919091018101516001600160a01b038416600090815280835260409020815161164e93600f9092019290910190611ae8565b5080600e8151811061165c57fe5b6020908102919091018101516001600160a01b038416600090815280835260409020815161169393600c9092019290910190611ae8565b5080600f815181106116a157fe5b6020908102919091018101516001600160a01b03841660009081528083526040902081516116d893600d9092019290910190611ae8565b50806010815181106116e657fe5b6020908102919091018101516001600160a01b038416600090815280835260409020815161171d9360109092019290910190611ae8565b508060118151811061172b57fe5b6020908102919091018101516001600160a01b03841660009081528083526040902081516117629360119092019290910190611ae8565b508060128151811061177057fe5b6020908102919091018101516001600160a01b03841660009081528083526040902081516117a79360129092019290910190611ae8565b50806013815181106117b557fe5b6020908102919091018101516001600160a01b03841660009081528083526040902081516117ec9360139092019290910190611ae8565b50806014815181106117fa57fe5b6020908102919091018101516001600160a01b03841660009081528083526040902081516118319360149092019290910190611ae8565b508060158151811061183f57fe5b6020908102919091018101516001600160a01b03841660009081528083526040902081516118769360159092019290910190611ae8565b508060168151811061188457fe5b6020908102919091018101516001600160a01b03841660009081528083526040902081516118bb9360169092019290910190611ae8565b50806017815181106118c957fe5b6020908102919091018101516001600160a01b03841660009081528083526040902081516119009360179092019290910190611ae8565b508060188151811061190e57fe5b6020908102919091018101516001600160a01b03841660009081528083526040902081516119459360189092019290910190611ae8565b508060198151811061195357fe5b6020908102919091018101516001600160a01b038416600090815280835260409020815161198a9360199092019290910190611ae8565b5080601a8151811061199857fe5b6020908102919091018101516001600160a01b03841660009081528083526040902081516119cf93601a9092019290910190611ae8565b5080601b815181106119dd57fe5b6020908102919091018101516001600160a01b0384166000908152808352604090208151611a1493601b9092019290910190611ae8565b5080601c81518110611a2257fe5b6020908102919091018101516001600160a01b0384166000908152808352604090208151611a5993601c9092019290910190611ae8565b5080601d81518110611a6757fe5b6020908102919091018101516001600160a01b0384166000908152808352604090208151611a9e93601d9092019290910190611ae8565b5080601e81518110611aac57fe5b6020908102919091018101516001600160a01b0384166000908152808352604090208151611ae393601e9092019290910190611ae8565b505050565b828054600181600116156101000203166002900490600052602060002090601f016020900481019282601f10611b2957805160ff1916838001178555611b56565b82800160010185558215611b56579182015b82811115611b56578251825591602001919060010190611b3b565b50611b62929150611b66565b5090565b611b8091905b80821115611b625760008155600101611b6c565b90565b600082601f830112611b93578081fd5b813567ffffffffffffffff811115611ba9578182fd5b611bbc601f8201601f19166020016120ce565b9150808252836020828501011115611bd357600080fd5b8060208401602084013760009082016020015292915050565b600060208284031215611bfd578081fd5b81356001600160a01b0381168114611c13578182fd5b9392505050565b60008060408385031215611c2c578081fd5b8235611c3781612115565b915060208381013567ffffffffffffffff811115611c53578283fd5b80850186601f820112611c64578384fd5b80359150611c79611c74836120f5565b6120ce565b82815283810190828501865b85811015611cae57611c9c8b888435880101611b83565b84529286019290860190600101611c85565b5096999098509650505050505050565b60008151808452815b81811015611ce357602081850181015186830182015201611cc7565b81811115611cf45782602083870101525b50601f01601f19169290920160200192915050565b60006020825282516103e0806020850152611d28610400850183611cbe565b60208601519250601f1980868303016040870152611d468285611cbe565b6040880151945081878203016060880152611d618186611cbe565b9250506060870151935080868303016080870152611d7f8285611cbe565b60808801519450818782030160a0880152611d9a8186611cbe565b92505060a08701519350808683030160c0870152611db88285611cbe565b60c08801519450818782030160e0880152611dd38186611cbe565b92505060e08701519350610100818784030181880152611df38386611cbe565b8189015195506101209350828882030184890152611e118187611cbe565b9150508288015194506101409250818782030183880152611e328186611cbe565b8389015195506101609350828882030184890152611e508187611cbe565b9150508288015194506101809250818782030183880152611e718186611cbe565b8389015195506101a09350828882030184890152611e8f8187611cbe565b9150508288015194506101c09250818782030183880152611eb08186611cbe565b8389015195506101e09350828882030184890152611ece8187611cbe565b9150508288015194506102009250818782030183880152611eef8186611cbe565b8389015195506102209350828882030184890152611f0d8187611cbe565b9150508288015194506102409250818782030183880152611f2e8186611cbe565b8389015195506102609350828882030184890152611f4c8187611cbe565b9150508288015194506102809250818782030183880152611f6d8186611cbe565b8389015195506102a09350828882030184890152611f8b8187611cbe565b9150508288015194506102c09250818782030183880152611fac8186611cbe565b8389015195506102e09350828882030184890152611fca8187611cbe565b9150508288015194506103009250818782030183880152611feb8186611cbe565b83890151955061032093508288820301848901526120098187611cbe565b915050828801519450610340925081878203018388015261202a8186611cbe565b83890151955061036093508288820301848901526120488187611cbe565b91505082880151945061038092508187820301838801526120698186611cbe565b8389015195506103a093508288820301848901526120878187611cbe565b9150508288015194506103c092508187820301838801526120a88186611cbe565b8389015195508288820301858901526120c18187611cbe565b9998505050505050505050565b60405181810167ffffffffffffffff811182821017156120ed57600080fd5b604052919050565b600067ffffffffffffffff82111561210b578081fd5b5060209081020190565b6001600160a01b038116811461212a57600080fd5b5056fea26469706673582212209b2c14bcdc4d3b2d2edec9e198c3931710cf10a15cd6a737f515bccce345bcb964736f6c63430006070033",
    "sourcePath": "c:/Users/Lucas/Desktop/TCC/blockchain-sus-rec-client/src/contracts/Paciente.sol",
    "compiler": {
        "name": "solc",
        "version": "0.6.7+commit.b8d736ae"
    },
    "functionHashes": {
        "AdicionarPaciente(address,string[])": "d556d633",
        "pacientes(address)": "bc14b7dc"
    },
    "gasEstimates": {
        "creation": {
            "codeDepositCost": "1709400",
            "executionCost": "1799",
            "totalCost": "1711199"
        },
        "external": {
            "AdicionarPaciente(address,string[])": "infinite",
            "pacientes(address)": "infinite"
        }
    }
}